:100000000C942A000C941F080C9448080C94710856
:100010000C9447000C9447000C942C060C94470059
:100020000C9447000C9447000C9499060C944700DC
:100030000C9447000C9447000C9447000C94470024
:100040000C9447000C9447000C9447000C94470014
:100050000C94470011241FBECFE5D8E0DEBFCDBF12
:1000600011E0A0E6B0E0E6EFFBE102C005900D92E2
:10007000AA38B107D9F711E0AAE8B1E001C01D9292
:10008000A23AB107E1F70E94A90D0C94F90D0C9466
:100090000000EF92FF920F931F937B018C0120E0F1
:1000A00030E040E05FE40E94CB0288238CF0C8017E
:1000B000B70120E030E040E05FE40E94C1010E940F
:1000C000FB029B01AC01205030404040504806C02C
:1000D000C801B7010E94FB029B01AC01B901CA0132
:1000E0001F910F91FF90EF900895A0E0B0E0EBE733
:1000F000F0E00C94C20DDC012B01FA019C919230CE
:1001000008F439C1EB018881823008F433C194309E
:1001100069F4843009F02FC111969C91119789815F
:10012000981709F428C1A0E6B0E025C1843009F48D
:1001300021C18230A9F4923009F01DC19A01AD01AC
:1001400088E0EA010990AE01E90109929E0181501F
:10015000C1F7E201898111969C918923818308C1AD
:10016000923009F407C112962D903C901397EB0141
:100170008A819B811496AD90BD90CD90DC901797AD
:10018000EC80FD800E811F819101281B390BB90184
:1001900037FF04C066277727621B730B6032710537
:1001A0000CF061C0121613066CF537014801062EDB
:1001B00004C096948794779467940A94D2F721E0C8
:1001C00030E040E050E004C0220F331F441F551FB1
:1001D0006A95D2F721503040404050402E213F21B7
:1001E00040235123211531054105510521F021E01E
:1001F00030E040E050E079018A01E628F72808293C
:1002000019293CC0232BD1F1260E371E350146019A
:10021000062E04C096948794779467940A94D2F734
:1002200021E030E040E050E004C0220F331F441FC3
:10023000551F6A95D2F721503040404050402A2146
:100240003B214C215D21211531054105510521F04E
:1002500021E030E040E050E059016A01A628B728CB
:10026000C828D9280BC0821593052CF01C01AA249C
:10027000BB24650103C0EE24FF24870111969C91E5
:10028000D20111968C91981709F445C0992339F041
:10029000A80197012A193B094C095D0906C0A6016E
:1002A00095012E193F09400B510B57FD08C01182D3
:1002B0003382228224833583468357831DC081E0A5
:1002C00081833382228288279927DC01821B930B4A
:1002D000A40BB50B84839583A683B7830DC0220F2F
:1002E000331F441F551F24833583468357838281E0
:1002F000938101979383828324813581468157813D
:10030000DA01C9010197A109B1098F5F9F4FAF4F72
:10031000BF4328F30BC0918333822282EA0CFB1C7B
:100320000C1D1D1DE482F5820683178383E0808304
:10033000248135814681578157FF1AC0C901AA27F8
:1003400097FDA095BA2F81709070A070B0705695EF
:10035000479537952795822B932BA42BB52B848318
:100360009583A683B7838281938101969383828349
:10037000DF0101C0D201CD01CDB7DEB7E2E10C94BF
:10038000DE0DA0E2B0E0E7ECF1E00C94CE0D698365
:100390007A838B839C832D833E834F835887E9E048
:1003A000EE2EF12CEC0EFD1ECE010196B7010E943F
:1003B000EC048E010F5E1F4FCE010596B8010E941E
:1003C000EC048A8991E089278A8BC701B801AE01C4
:1003D000475E5F4F0E9475000E941704A096E6E0FA
:1003E0000C94EA0DA0E2B0E0E8EFF1E00C94CE0D41
:1003F00069837A838B839C832D833E834F835887C5
:10040000F9E0EF2EF12CEC0EFD1ECE010196B701A6
:100410000E94EC048E010F5E1F4FCE010596B801BD
:100420000E94EC04C701B801AE01475E5F4F0E9415
:1004300075000E941704A096E6E00C94EA0DA8E16E
:10044000B0E0E5E2F2E00C94CA0D69837A838B8315
:100450009C832D833E834F835887B9E0EB2EF12C8C
:10046000EC0EFD1ECE010196B7010E94EC048E0138
:100470000F5E1F4FCE010596B8010E94EC0429853E
:10048000223008F47EC03989323010F4B8017CC0C3
:100490008A859A8989278A87243011F0223031F49D
:1004A000231709F06EC060E670E06EC0343039F496
:1004B0001D861E861F86188A1C861B8604C0323045
:1004C00021F484E08987B7015FC02B853C858B8947
:1004D0009C89281B390B3C872B87ED84FE840F8574
:1004E0001889AD88BE88CF88D88CEA14FB040C0527
:1004F0001D0540F4EE0CFF1C001F111F2150304061
:100500003C872B8720E030E040E050E080E090E046
:10051000A0E0B0E460E070E0EA14FB040C051D0507
:1005200040F0282B392B4A2B5B2BEA18FB080C09CF
:100530001D09B695A79597958795EE0CFF1C001F92
:10054000111F6F5F7F4F6F31710531F7DA01C901FC
:100550008F779070A070B07080349105A105B105BF
:1005600061F427FD0AC0E114F1040105110529F029
:10057000205C3F4F4F4F5F4F20782D873E874F873E
:10058000588BBE01675F7F4FCB010E9417046896AE
:10059000EAE00C94E60DA8E1B0E0E1EDF2E00C94A5
:1005A000CE0D69837A838B839C832D833E834F8317
:1005B000588789E0E82EF12CEC0EFD1ECE01019645
:1005C000B7010E94EC048E010F5E1F4FCE0105960D
:1005D000B8010E94EC048985823040F0898982301C
:1005E00028F0C701B8010E94640501C08FEF68962A
:1005F000E6E00C94EA0DACE0B0E0E1E0F3E00C944E
:10060000D20D69837A838B839C83CE010196BE01D0
:100610006B5F7F4F0E94EC048D81823061F18230EC
:1006200050F1843021F48E81882351F12EC02F8126
:10063000388537FD20C06E812F3131051CF06623CF
:10064000F9F023C08EE190E0821B930B29853A8557
:100650004B855C8504C056954795379527958A95B7
:10066000D2F76623B1F050954095309521953F4FD4
:100670004F4F5F4F0EC020E030E040E050E009C037
:100680002FEF3FEF4FEF5FE704C020E030E040E0A6
:1006900050E8B901CA012C96E2E00C94EE0DA8E0F6
:1006A000B0E0E5E5F3E00C94CA0D7B018C01611527
:1006B00071058105910519F482E0898360C083E0AA
:1006C00089838EE1C82ED12CDC82CB82ED82FE8222
:1006D0000F831887C801B7010E94C803FC01319736
:1006E000F7FF3BC0222733272E1B3F0B5701680122
:1006F000022E04C0D694C794B794A7940A94D2F754
:1007000040E050E060E070E081E090E0A0E0B0E028
:1007100004C0880F991FAA1FBB1F2A95D2F7019703
:10072000A109B1098E219F21A023B1230097A10522
:10073000B10521F041E050E060E070E04A295B291A
:100740006C297D294D835E836F8378878EE190E0ED
:100750008E1B9F0B9C838B8312C0309781F00E2ED3
:1007600004C0EE0CFF1C001F111F0A94D2F7ED828B
:10077000FE820F831887CE1ADF0ADC82CB821A82B0
:10078000CE0101960E9417042896EAE00C94E60D2B
:10079000EF92FF920F931F937B018C0180E0E8168C
:1007A00080E0F80681E0080780E0180788F48FEF02
:1007B000E816F1040105110531F028F088E090E019
:1007C000A0E0B0E017C080E090E0A0E0B0E012C090
:1007D00080E0E81680E0F80680E0080781E018076E
:1007E00028F088E190E0A0E0B0E004C080E190E073
:1007F000A0E0B0E020E230E040E050E0281B390B00
:100800004A0B5B0B04C016950795F794E7948A95FD
:10081000D2F7F701E859FF4F8081281B31094109C0
:100820005109C9011F910F91FF90EF900895DF9238
:10083000EF92FF920F931F93FC01E480F5800681F5
:100840001781D1808081823048F480E090E0A0E17F
:10085000B0E0E82AF92A0A2B1B2BA5C0843009F442
:100860009FC0823021F4EE24FF24870105C0E114EB
:10087000F1040105110519F4E0E0F0E096C0628191
:1008800073819FEF623879070CF05BC022E83FEF7D
:10089000261B370B2A3131052CF020E030E040E0F8
:1008A00050E02AC0B801A701022E04C076956795D2
:1008B000579547950A94D2F781E090E0A0E0B0E028
:1008C00004C0880F991FAA1FBB1F2A95D2F7019752
:1008D000A109B1098E219F21A023B1230097A10571
:1008E000B10521F081E090E0A0E0B0E09A01AB0119
:1008F000282B392B4A2B5B2BDA01C9018F7790709B
:10090000A070B07080349105A105B10539F427FFBE
:1009100009C0205C3F4F4F4F5F4F04C0215C3F4FE9
:100920004F4F5F4FE0E0F0E02030A0E03A07A0E05A
:100930004A07A0E45A0710F0E1E0F0E079018A01EB
:1009400027C06038710564F5FB01E158FF4FD801FD
:10095000C7018F779070A070B07080349105A105A9
:10096000B10539F4E7FE0DC080E490E0A0E0B0E00E
:1009700004C08FE390E0A0E0B0E0E80EF91E0A1F8B
:100980001B1F17FF05C016950795F794E79431963E
:1009900087E016950795F794E7948A95D1F705C0F7
:1009A000EE24FF248701EFEFF0E06E2F67956627B6
:1009B0006795902F9F77D794DD24D7948E2F8695B7
:1009C000492F462B582F5D29B701CA011F910F915E
:1009D000FF90EF90DF900895FC01DB014081518191
:1009E0002281622F6F7770E0221F2227221F9381BE
:1009F000892F880F822B282F30E0991F9927991F64
:100A000011969C93119721153105A9F541155105B2
:100A10006105710511F482E037C082E89FEF1396FB
:100A20009C938E9312979A01AB0167E0220F331FBC
:100A3000441F551F6A95D1F783E08C930DC0220F98
:100A4000331F441F551F12968D919C911397019748
:100A500013969C938E931297203080E0380780E0A5
:100A6000480780E4580758F314962D933D934D930F
:100A70005C93179708952F3F310579F4411551057F
:100A80006105710519F484E08C93089564FF03C037
:100A900081E08C9312C01C9210C02F5730401396E7
:100AA0003C932E93129783E08C9387E0440F551F5D
:100AB000661F771F8A95D1F7706414964D935D93E6
:100AC0006D937C93179708951F93DC01FB019C9114
:100AD000923008F447C08081823008F443C09430DB
:100AE00051F411961C91843099F58181682F70E042
:100AF000611B71093FC0843021F0923031F48230A3
:100B0000B9F18181882389F12DC011961C9111972B
:100B10008230F1F081811817D9F412962D913C9111
:100B20001397828193818217930794F028173907CE
:100B3000BCF014968D919D910D90BC91A02D2481B7
:100B4000358146815781281739074A075B0718F412
:100B5000112341F00AC082179307A407B50740F498
:100B6000112319F061E070E005C06FEF7FEF02C064
:100B700060E070E0CB011F91089591B58770987F78
:100B8000892B81BD81B5886081BD089588E181BDD3
:100B900011BC089588E18AB986E880BD83E389B9EC
:100BA00010BC08955D9BFECF8CB908955F9BFECF6E
:100BB0008CB10895FC0180E006C090815D9BFECF62
:100BC0009CB98F5F31968617C0F308958FB58E7FDD
:100BD0008FBD8FB582608FBD8EB588608EBD8EB59E
:100BE00080618EBD8FB58F7B8FBD8FB580688FBDC7
:100BF00080E29EE497BD86BD8EB58E7F8EBD8EB59C
:100C000082608EBD8EB58B7F8EBD08959BBD8ABDE3
:100C100008958EB5887F82608EBD089526B537B55C
:100C2000C9010895882319F0813041F404C08EB5BC
:100C300080648EBD08958EB58F7B8EBD089589B773
:100C4000806289BF089589B78F7D89BF0895909389
:100C50008F0180938E0108951F920F920FB60F920D
:100C600011242F933F934F935F936F937F938F93B1
:100C70009F93AF93BF93EF93FF93E0918E01F09119
:100C80008F01309709F00995FF91EF91BF91AF91D6
:100C90009F918F917F916F915F914F913F912F9194
:100CA0000F900FBE0F901F90189583B7886083BF79
:100CB00083B78F7B83BF89B7826089BF83B7887F03
:100CC00083BF83B7836083BF08958CBF08959093DB
:100CD000910180939001409394015093950160930A
:100CE00096017093970183B7887F826083BF0895D0
:100CF00083B7887F826083BF089583B78E7F83BF69
:100D000083B78D7F83BF83B78B7F83BF0895909315
:100D100093018093920140939401509395016093C5
:100D20009601709397012CBF83B7887F826083BF41
:100D300008951F920F920FB60F9211242F933F9395
:100D40004F935F936F937F938F939F93AF93BF93D3
:100D5000EF93FF938091980190919901A0919A014E
:100D6000B0919B010196A11DB11D809398019093B4
:100D70009901A0939A01B0939B0120919801309121
:100D8000990140919A0150919B0180919401909119
:100D90009501A0919601B0919701281739074A074C
:100DA0005B0778F0109298011092990110929A01C5
:100DB00010929B01E0919201F0919301309709F01C
:100DC0000995FF91EF91BF91AF919F918F917F9185
:100DD0006F915F914F913F912F910F900FBE0F90A8
:100DE0001F9018958FB9779BFECF8FB108958FB95B
:100DF000779BFECF0895779BFECF8FB1089581E05A
:100E000065E040E00E94B40881E067E040E00E94B5
:100E1000B40881E066E041E00E94B4086C986E9AE4
:100E200008950898099882E083B986B7846086BFE0
:100E30000895880F82B986B7806486BF86B78460BC
:100E400086BF089584EA86BF06B607FEFDCF81B14E
:100E500090E0887F883009F091E0892F089584EA36
:100E600086BF06B607FEFDCF81B1887F803111F0C5
:100E700082E0089580E00895880F83B984E886BFF2
:100E800006B607FEFDCF81B1887F883111F083E07F
:100E9000089580E00895880F816083B984E886BF53
:100EA00006B607FEFDCF81B1887F803411F084E063
:100EB000089580E00895FC0186B7806886BF06B675
:100EC00007FEFDCF81B1887F803511F086E008955F
:100ED00083B1808380E0089583B986B7806886BF38
:100EE00006B607FEFDCF81B1887F883211F085E01C
:100EF000089580E0089584E986BF0895882331F03D
:100F0000813039F48FB780688FBF08958FB78F779E
:100F10008FBF0895813079F0813018F0823001F56B
:100F200014C0613019F48BB7806413C06623C1F418
:100F30008BB78F7B0EC0613019F48BB7806809C006
:100F4000662371F48BB78F7704C0613021F48BB7BF
:100F500080628BBF0895662319F48BB78F7D8BBF9A
:100F60000895813009F1813020F0823009F044C0C9
:100F700037C0613051F0613028F0623061F0633089
:100F8000D9F50CC085B78E7F02C085B7816085BF5B
:100F900085B78D7F23C085B78E7F02C085B78160FE
:100FA00085BF85B782601AC0613051F0613028F08A
:100FB000623061F0633001F50CC085B78B7F02C0F1
:100FC00085B7846085BF85B7877F08C085B78B7F6D
:100FD00002C085B7846085BF85B7886085BF0895E6
:100FE000623019F0633041F404C084B78F7B84BF52
:100FF000089584B7806484BF08956115710511F464
:1010000081E00895813051F0813018F0823089F408
:101010000AC070939D0160939C0109C070939F0169
:1010200060939E0104C07093A1016093A00180E0D1
:101030000895833010F082E0089580E008951F92B3
:101040000F920FB60F9211242F933F934F935F93FC
:101050006F937F938F939F93AF93BF93EF93FF9380
:10106000E0919C01F0919D01309709F00995FF9165
:10107000EF91BF91AF919F918F917F916F915F9110
:101080004F913F912F910F900FBE0F901F90189589
:101090001F920F920FB60F9211242F933F934F93ED
:1010A0005F936F937F938F939F93AF93BF93EF93D0
:1010B000FF93E0919E01F0919F01309709F009950F
:1010C000FF91EF91BF91AF919F918F917F916F9120
:1010D0005F914F913F912F910F900FBE0F901F90F6
:1010E00018951F920F920FB60F9211242F933F93D2
:1010F0004F935F936F937F938F939F93AF93BF9320
:10110000EF93FF93E091A001F091A101309709F0D6
:101110000995FF91EF91BF91AF919F918F917F9131
:101120006F915F914F913F912F910F900FBE0F9054
:101130001F90189585B78B7F85BF85B7877F85BF43
:1011400081E00E947E078BB780688BBF08951ABA32
:1011500017BA14BA11BA1BBA18BA15BA12BA19BA10
:1011600016BA13BA10BA08954130B1F5813099F02A
:10117000813030F08230D1F0833009F067C021C077
:101180002AB381E090E002C0880F991F6A95E2F7C8
:10119000282B2ABB089527B381E090E002C0880F76
:1011A000991F6A95E2F7282B27BB089524B381E0A5
:1011B00090E002C0880F991F6A95E2F7282B24BBA4
:1011C000089521B381E090E002C0880F991F6A95CD
:1011D000E2F7282B21BB08954423C1F5813099F013
:1011E000813028F08230D9F0833081F524C02AB3D1
:1011F00081E090E002C0880F991F6A95E2F7809520
:1012000082238ABB089527B381E090E002C0880F53
:10121000991F6A95E2F78095822387BB089524B3CE
:1012200081E090E002C0880F991F6A95E2F78095EF
:10123000822384BB089521B381E090E002C0880F2F
:10124000991F6A95E2F78095822381BB089541300A
:10125000B1F5813099F0813030F08230D1F08330B7
:1012600009F067C021C02BB381E090E002C0880F75
:10127000991F6A95E2F7282B2BBB089528B381E0CC
:1012800090E002C0880F991F6A95E2F7282B28BBCF
:10129000089525B381E090E002C0880F991F6A95F8
:1012A000E2F7282B25BB089522B381E090E002C02D
:1012B000880F991F6A95E2F7282B22BB08954423D3
:1012C000C1F5813099F0813028F08230D9F0833037
:1012D00081F524C02BB381E090E002C0880F991FF4
:1012E0006A95E2F7809582238BBB089528B381E04D
:1012F00090E002C0880F991F6A95E2F780958223DB
:1013000088BB089525B381E090E002C0880F991F43
:101310006A95E2F78095822385BB089522B381E028
:1013200090E002C0880F991F6A95E2F780958223AA
:1013300082BB0895813051F0813030F0823041F02D
:10134000833079F08FEF089589B303C086B301C06D
:1013500083B390E002C0959587956A95E2F7817016
:10136000089580B390E002C0959587956A95E2F75D
:1013700081700895813091F0813028F08230C9F079
:10138000833061F521C02BB381E090E002C0880F6B
:10139000991F6A95E2F728272BBB089528B381E0AF
:1013A00090E002C0880F991F6A95E2F7282728BBB2
:1013B000089525B381E090E002C0880F991F6A95D7
:1013C000E2F7282725BB089522B381E090E002C010
:1013D000880F991F6A95E2F7282722BB089581306C
:1013E00071F0813028F0823089F08330E1F415C04B
:1013F000662311F480E001C08FEF8ABB0895662355
:1014000011F480E001C08FEF87BB0895662311F4CB
:1014100080E001C08FEF84BB0895662311F480E063
:1014200001C08FEF81BB0895813049F0813028F0F1
:10143000823039F0833041F406C06BBB089568BB3D
:10144000089565BB089562BB0895813051F08130E5
:1014500030F0823041F0833041F080E0089589B36C
:10146000089586B3089583B3089580B308953E9A8E
:101470003F983D983098319A329A35983398379AF8
:10148000089597B18F70907E892B87B9369A349BD7
:10149000FECF349A24B135B1C9010895EF92FF927D
:1014A0000F931F93CF93DF93A0E0B0E0BC01CD0179
:1014B0000E944F0320E030E044E35EE30E941F02FD
:1014C0000E9449008B011695079516950795C0E077
:1014D000D0E080E2E82E8EE4F82E62C080E060E08A
:1014E00041E00E94270980E061E040E00E94270976
:1014F00080E062E040E00E94270980E063E040E095
:101500000E942709C7010197F1F780E060E040E001
:101510000E94270980E061E041E00E94270980E005
:1015200062E040E00E94270980E063E040E00E9422
:101530002709C7010197F1F780E060E040E00E94D1
:10154000270980E061E040E00E94270980E062E036
:1015500041E00E94270980E063E040E00E94270903
:10156000C7010197F1F780E060E040E00E942709A1
:1015700080E061E040E00E94270980E062E040E016
:101580000E94270980E063E041E00E942709C7012B
:101590000197F1F780E063E040E00E94270921967F
:1015A000C017D10708F49ACFDF91CF911F910F9107
:1015B000FF90EF9008950F931F9380E060E041E06B
:1015C0000E94270980E061E040E00E94270980E056
:1015D00062E040E00E94270980E063E040E00E9472
:1015E000270900E21EE4C8010197F1F780E060E0FE
:1015F00040E00E94270980E061E041E00E94270965
:1016000080E062E040E00E94270980E063E040E083
:101610000E942709C8010197F1F780E060E040E0EF
:101620000E94270980E061E040E00E94270980E0F5
:1016300062E041E00E94270980E063E040E00E9410
:101640002709C8010197F1F780E060E040E00E94BF
:10165000270980E061E040E00E94270980E062E025
:1016600040E00E94270980E063E041E00E942709F2
:10167000C8010197F1F71F910F91089580E060E094
:1016800041E00E94B40880E061E041E00E94B408BB
:1016900080E062E041E00E94B40880E063E041E065
:1016A0000E94B40808951F93182F82E06FEF0E94E4
:1016B000EF091A3040F4E12FF0E0E859FE4F608165
:1016C000609582E002C082E069EF0E94140A1F91D7
:1016D000089582E06FEF0E94140A08950F931F93FC
:1016E00080E062E041E00E94270900ED17E0C801B8
:1016F0000197F1F780E062E040E00E942709C8010D
:101700000197F1F71F910F9108951F93182F482FFC
:10171000417080E064E00E942709412F46954170A6
:1017200080E065E00E94270916951695412F4170CB
:1017300080E066E00E9427091695117080E067E05E
:10174000412F0E9427091F9108951F93182F80E0B1
:1017500060E041E00E94270980E061E040E00E94F3
:101760002709812F82958F700E94850B0E946E0B36
:10177000812F8F700E94850B0E946E0B1F91089520
:10178000FF920F931F93DF93CF9300D000D00F925F
:10179000CDB7DEB79C01009721F480E30E94A50B32
:1017A0002AC0FE013196FF24C9016AE070E00E9460
:1017B000AE0D805D8193F394C9016AE070E00E94F0
:1017C000AE0D9B016115710579F7FA948F2D99275C
:1017D00087FD9095F3948E010F5F1F4F080F191F1F
:1017E00006C0F80180810E94A50B01501040FA94B8
:1017F000FFEFFF16B1F70F900F900F900F900F9023
:10180000CF91DF911F910F91FF9008951F93CF9378
:10181000DF93EC0110E003C00E94A50B1F5FFE01E7
:10182000E10FF11D80818823B9F7DF91CF911F91DE
:1018300008951F93182F80E060E040E00E94270980
:1018400080E061E040E00E942709812F82958F703F
:101850000E94850B0E946E0B812F8F700E94850B5A
:101860000E946E0B1F910895662329F0613011F0DC
:1018700080E001C0805C80580E94190C0895DF92BE
:10188000EF92FF920F931F93CF93DF93F82E8B016C
:10189000E42ED22E880F880F880F805C0E94190CCE
:1018A000C0E0D0E0F801EC0FFD1F80810E94A50B85
:1018B0002196C830D105B1F78E2D6D2D0E94340CC4
:1018C0008F2D0E94A50BDF91CF911F910F91FF905B
:1018D000EF90DF90089580E060E041E00E94B4085E
:1018E00080E061E041E00E94B40880E062E041E015
:1018F0000E94B40880E064E041E00E94B40880E007
:1019000065E041E00E94B40880E066E041E00E94AA
:10191000B40880E067E041E00E94B40884EF91E001
:1019200028EC30E0F9013197F1F70197D9F783E31B
:101930000E94190C82E30E94190C88E20E94190C83
:101940008CE00E94190C81E00E94190C80EA9FE053
:101950000197F1F786E00E94190C08958F929F92EB
:10196000BF92CF92DF92EF92FF920F931F93CF938C
:10197000DF93BB24BA94EE24FF2488EC882E912CAC
:10198000F701EA58FE4FC08082E06C2D40E00E94D3
:101990002709C2E7D1E0870106581E4FD88082E0B0
:1019A0006D2D0E949A098823B1F482E06D2D0E946A
:1019B0009A0924EF31E0F4013197F1F721503040DA
:1019C000D1F7882341F4F801B08082E06D2D0E94A8
:1019D0009A098823D1F321960C5F1F4FF1E0C63797
:1019E000DF07E1F682E06C2D41E00E9427090894B0
:1019F000E11CF11C84E0E816F10409F0C1CF8B2D45
:101A0000DF91CF911F910F91FF90EF90DF90CF90DA
:101A1000BF909F908F900895CF93DF93C0E2DEE454
:101A20000E94AE0CFE013197F1F78F3FC9F3DF91B1
:101A3000CF91089582E060E041E00E94B40882E026
:101A400061E041E00E94B40882E062E041E00E946F
:101A5000B40882E063E041E00E94B40882E060E004
:101A600041E00E94270982E061E041E00E942709ED
:101A700082E062E041E00E94270982E063E041E009
:101A80000E94270982E064E040E00E94B40882E0FE
:101A900065E040E00E94B40882E066E040E00E9419
:101AA000B40882E067E040E00E94B40882E064E0AD
:101AB00041E00E94270982E065E041E00E94270999
:101AC00082E066E041E00E94270982E067E041E0B1
:101AD0000E94270908950F931F93DF93CF930F92CE
:101AE000CDB7DEB7082F162F0E942207812F0E9444
:101AF0003C07802F0E946C070E942F07812F0E94B5
:101B00004B07CE0101960E945B070E947B078981EB
:101B10000F90CF91DF911F910F910895FF920F9336
:101B20001F93F82E062F142F0E942207812F0E9448
:101B30003C07802F0E946C078F2D0E946C070E942B
:101B40007B0780E197E20197F1F71F910F91FF90DA
:101B500008950E94A7080E946B0CFFCFAA1BBB1B15
:101B600051E107C0AA1FBB1FA617B70710F0A61B9D
:101B7000B70B881F991F5A95A9F780959095BC01BE
:101B8000CD0108952F923F924F925F926F927F9274
:101B90008F929F92AF92BF92CF92DF92EF92FF927D
:101BA0000F931F93CF93DF93CDB7DEB7CA1BDB0B29
:101BB0000FB6F894DEBF0FBECDBF09942A883988CE
:101BC00048885F846E847D848C849B84AA84B984D5
:101BD000C884DF80EE80FD800C811B81AA81B981E1
:101BE000CE0FD11D0FB6F894DEBF0FBECDBFED01F5
:061BF0000895F894FFCFF8
:101BF60000000000000000000001020203030303CE
:101C06000404040404040404050505050505050586
:101C16000505050505050505060606060606060666
:101C2600060606060606060606060606060606064E
:101C36000606060606060606070707070707070736
:101C4600070707070707070707070707070707071E
:101C5600070707070707070707070707070707070E
:101C660007070707070707070707070707070707FE
:101C760007070707070707070808080808080808E6
:101C860008080808080808080808080808080808CE
:101C960008080808080808080808080808080808BE
:101CA60008080808080808080808080808080808AE
:101CB600080808080808080808080808080808089E
:101CC600080808080808080808080808080808088E
:101CD600080808080808080808080808080808087E
:101CE600080808080808080808080808080808086E
:101CF6000808080808080808C0F9A4B0999282F8EC
:101D0600809004050607000102033738392F343561
:0A1D1600362A3132332D43303D2BC5
:00000001FF
