:100000000C942A000C94EB0C0C941E0D0C94510DC6
:100010000C9447000C9447000C948E080C944700F5
:100020000C9447000C9447000C9447000C94470034
:100030000C9447000C9447000C9447000C94470024
:100040000C9447000C9447000C9447000C94470014
:100050000C94470011241FBECFE5D8E0DEBFCDBF12
:1000600011E0A0E6B0E0E6E9F3E402C005900D92ED
:10007000A23CB107D9F711E0A2ECB1E001C01D929A
:10008000A83DB107E1F70E94C01F0C94C9210C9450
:100090000000EF92FF920F931F937B018C0120E0F1
:1000A00030E040E05FE40E94F50388238CF0C80153
:1000B000B70120E030E040E05FE40E94C1010E940F
:1000C00055049B01AC01205030404040504806C0D0
:1000D000C801B7010E9455049B01AC01B901CA01D6
:1000E0001F910F91FF90EF900895A0E0B0E0EBE733
:1000F000F0E00C949221DC012B01FA019C919230EA
:1001000008F439C1EB018881823008F433C194309E
:1001100069F4843009F02FC111969C91119789815F
:10012000981709F428C1A5E9B0E025C1843009F485
:1001300021C18230A9F4923009F01DC19A01AD01AC
:1001400088E0EA010990AE01E90109929E0181501F
:10015000C1F7E201898111969C918923818308C1AD
:10016000923009F407C112962D903C901397EB0141
:100170008A819B811496AD90BD90CD90DC901797AD
:10018000EC80FD800E811F819101281B390BB90184
:1001900037FF04C066277727621B730B6032710537
:1001A0000CF061C0121613066CF537014801062EDB
:1001B00004C096948794779467940A94D2F721E0C8
:1001C00030E040E050E004C0220F331F441F551FB1
:1001D0006A95D2F721503040404050402E213F21B7
:1001E00040235123211531054105510521F021E01E
:1001F00030E040E050E079018A01E628F72808293C
:1002000019293CC0232BD1F1260E371E350146019A
:10021000062E04C096948794779467940A94D2F734
:1002200021E030E040E050E004C0220F331F441FC3
:10023000551F6A95D2F721503040404050402A2146
:100240003B214C215D21211531054105510521F04E
:1002500021E030E040E050E059016A01A628B728CB
:10026000C828D9280BC0821593052CF01C01AA249C
:10027000BB24650103C0EE24FF24870111969C91E5
:10028000D20111968C91981709F445C0992339F041
:10029000A80197012A193B094C095D0906C0A6016E
:1002A00095012E193F09400B510B57FD08C01182D3
:1002B0003382228224833583468357831DC081E0A5
:1002C00081833382228288279927DC01821B930B4A
:1002D000A40BB50B84839583A683B7830DC0220F2F
:1002E000331F441F551F24833583468357838281E0
:1002F000938101979383828324813581468157813D
:10030000DA01C9010197A109B1098F5F9F4FAF4F72
:10031000BF4328F30BC0918333822282EA0CFB1C7B
:100320000C1D1D1DE482F5820683178383E0808304
:10033000248135814681578157FF1AC0C901AA27F8
:1003400097FDA095BA2F81709070A070B0705695EF
:10035000479537952795822B932BA42BB52B848318
:100360009583A683B7838281938101969383828349
:10037000DF0101C0D201CD01CDB7DEB7E2E10C94BF
:10038000AE21A0E2B0E0E7ECF1E00C949E2169839D
:100390007A838B839C832D833E834F835887E9E048
:1003A000EE2EF12CEC0EFD1ECE010196B7010E943F
:1003B00046068E010F5E1F4FCE010596B8010E94C2
:1003C00046068A8991E089278A8BC701B801AE0168
:1003D000475E5F4F0E9475000E947105A096E6E09F
:1003E0000C94BA21A0E2B0E0E8EFF1E00C949E2179
:1003F00069837A838B839C832D833E834F835887C5
:10040000F9E0EF2EF12CEC0EFD1ECE010196B701A6
:100410000E9446068E010F5E1F4FCE010596B80161
:100420000E944606C701B801AE01475E5F4F0E94B9
:1004300075000E947105A096E6E00C94BA21A0E236
:10044000B0E0E5E2F2E00C94922169837A838B8339
:100450009C832D833E834F835887CE010196BE0136
:10046000675F7F4F0E944606CE010596BE016F5E14
:100470007F4F0E9446069985923088F089898230A4
:10048000C8F0943019F4823051F404C0843029F457
:10049000923081F485E990E0C6C0923049F420E0C2
:1004A0009A858A89981321E02A87CE010996BBC0D4
:1004B000823049F420E09A858A89981321E02A8BBA
:1004C000CE014196B0C02D843E844F8458886D88FB
:1004D0007E888F88988CEE24FF248701AA24BB2471
:1004E000650140E050E060E070E0E0E0F0E0C10174
:1004F00081709070892BE9F0E60CF71C081D191D1E
:100500009A01AB012A0D3B1D4C1D5D1D80E090E062
:10051000A0E0B0E0E614F7040805190520F481E036
:1005200090E0A0E0B0E0BA01A901480F591F6A1F8E
:100530007B1FAA0CBB1CCC1CDD1C97FE08C081E0F5
:1005400090E0A0E0B0E0A82AB92ACA2ADB2A3196B6
:10055000E032F10549F0660C771C881C991C569412
:10056000479437942794C3CFFA85EA892B893C892D
:100570008B859C85280F391F2E5F3F4F17C0CA01FE
:1005800081709070892B61F016950795F794E79428
:1005900080E090E0A0E0B0E8E82AF92A0A2B1B2BC3
:1005A00076956795579547952F5F3F4F77FDE7CF36
:1005B0000CC0440F551F661F771F17FD4160EE0CDE
:1005C000FF1C001F111F21503040403090E05907A0
:1005D00090E0690790E4790760F32B8F3C8FDB0193
:1005E000CA018F779070A070B07080349105A1051A
:1005F000B10561F447FD0AC0E114F10401051105DC
:1006000029F0405C5F4F6F4F7F4F40781A8EFE1786
:1006100011F081E08A8F4D8F5E8F6F8F78A383E01A
:10062000898FCE0149960E947105A096E2E10C9453
:10063000AE21A8E1B0E0EFE1F3E00C949A216983E8
:100640007A838B839C832D833E834F835887B9E0C5
:10065000EB2EF12CEC0EFD1ECE010196B7010E948F
:1006600046068E010F5E1F4FCE010596B8010E940F
:1006700046062985223008F47EC03989323010F4CC
:10068000B8017CC08A859A8989278A87243011F02D
:10069000223031F4231709F06EC065E970E06EC0B6
:1006A000343039F41D861E861F86188A1C861B86E8
:1006B00004C0323021F484E08987B7015FC02B8504
:1006C0003C858B899C89281B390B3C872B87ED84C3
:1006D000FE840F851889AD88BE88CF88D88CEA142F
:1006E000FB040C051D0540F4EE0CFF1C001F111F40
:1006F000215030403C872B8720E030E040E050E044
:1007000080E090E0A0E0B0E460E070E0EA14FB0478
:100710000C051D0540F0282B392B4A2B5B2BEA18C2
:10072000FB080C091D09B695A79597958795EE0CC2
:10073000FF1C001F111F6F5F7F4F6F31710531F775
:10074000DA01C9018F779070A070B0708034910584
:10075000A105B10561F427FD0AC0E114F10401050A
:10076000110529F0205C3F4F4F4F5F4F20782D87B8
:100770003E874F87588BBE01675F7F4FCB010E943A
:1007800071056896EAE00C94B621A8E1B0E0EBECC4
:10079000F3E00C949E2169837A838B839C832D8361
:1007A0003E834F83588789E0E82EF12CEC0EFD1E26
:1007B000CE010196B7010E9446068E010F5E1F4FC3
:1007C000CE010596B8010E9446068985823040F028
:1007D0008989823028F0C701B8010E94BE0601C095
:1007E0008FEF6896E6E00C94BA21A8E1B0E0EBEF59
:1007F000F3E00C949E2169837A838B839C832D8301
:100800003E834F83588789E0E82EF12CEC0EFD1EC5
:10081000CE010196B7010E9446068E010F5E1F4F62
:10082000CE010596B8010E9446068985823040F0C7
:100830008989823028F0C701B8010E94BE0601C034
:100840008FEF6896E6E00C94BA21A8E1B0E0EBE205
:10085000F4E00C949E2169837A838B839C832D839F
:100860003E834F83588789E0E82EF12CEC0EFD1E65
:10087000CE010196B7010E9446068E010F5E1F4F02
:10088000CE010596B8010E9446068985823040F067
:100890008989823028F0C701B8010E94BE0601C0D4
:1008A00081E06896E6E00C94BA21ACE0B0E0EBE5BC
:1008B000F4E00C94A22169837A838B839C83CE011C
:1008C0000196BE016B5F7F4F0E9446068D8182308C
:1008D00061F1823050F1843021F48E81882351F10E
:1008E0002EC02F81388537FD20C06E812F31310514
:1008F0001CF06623F9F023C08EE190E0821B930B7D
:1009000029853A854B855C8504C056954795379572
:1009100027958A95D2F76623B1F05095409530958A
:1009200021953F4F4F4F5F4F0EC020E030E040E039
:1009300050E009C02FEF3FEF4FEF5FE704C020E02A
:1009400030E040E050E8B901CA012C96E2E00C9496
:10095000BE21A8E0B0E0EFEAF4E00C949A217B011C
:100960008C01611571058105910519F482E0898377
:1009700060C083E089838EE1C82ED12CDC82CB82DB
:10098000ED82FE820F831887C801B7010E942205FD
:10099000FC013197F7FF3BC0222733272E1B3F0B6B
:1009A00057016801022E04C0D694C794B794A79447
:1009B0000A94D2F740E050E060E070E081E090E01F
:1009C000A0E0B0E004C0880F991FAA1FBB1F2A95A2
:1009D000D2F70197A109B1098E219F21A023B1234C
:1009E0000097A105B10521F041E050E060E070E022
:1009F0004A295B296C297D294D835E836F83788723
:100A00008EE190E08E1B9F0B9C838B8312C03097EE
:100A100081F00E2E04C0EE0CFF1C001F111F0A9463
:100A2000D2F7ED82FE820F831887CE1ADF0ADC82AE
:100A3000CB821A82CE0101960E9471052896EAE0C7
:100A40000C94B621EF92FF920F931F937B018C01C0
:100A500080E0E81680E0F80681E0080780E01807EB
:100A600088F48FEFE816F1040105110531F028F044
:100A700088E090E0A0E0B0E017C080E090E0A0E067
:100A8000B0E012C080E0E81680E0F80680E00807D9
:100A900081E0180728F088E190E0A0E0B0E004C011
:100AA00080E190E0A0E0B0E020E230E040E050E003
:100AB000281B390B4A0B5B0B04C016950795F7945E
:100AC000E7948A95D2F7F701E356FF4F8081281B00
:100AD000310941095109C9011F910F91FF90EF9010
:100AE0000895DF92EF92FF920F931F93FC01E48031
:100AF000F58006811781D1808081823048F480E0C2
:100B000090E0A0E1B0E0E82AF92A0A2B1B2BA5C04F
:100B1000843009F49FC0823021F4EE24FF24870141
:100B200005C0E114F1040105110519F4E0E0F0E05D
:100B300096C0628173819FEF623879070CF05BC0C9
:100B400022E83FEF261B370B2A3131052CF020E03D
:100B500030E040E050E02AC0B801A701022E04C0F6
:100B600076956795579547950A94D2F781E090E07E
:100B7000A0E0B0E004C0880F991FAA1FBB1F2A95F0
:100B8000D2F70197A109B1098E219F21A023B1239A
:100B90000097A105B10521F081E090E0A0E0B0E070
:100BA0009A01AB01282B392B4A2B5B2BDA01C901A7
:100BB0008F779070A070B07080349105A105B10559
:100BC00039F427FF09C0205C3F4F4F4F5F4F04C0EF
:100BD000215C3F4F4F4F5F4FE0E0F0E02030A0E05E
:100BE0003A07A0E04A07A0E45A0710F0E1E0F0E07D
:100BF00079018A0127C06038710564F5FB01E1586D
:100C0000FF4FD801C7018F779070A070B07080340B
:100C10009105A105B10539F4E7FE0DC080E490E02F
:100C2000A0E0B0E004C08FE390E0A0E0B0E0E80E08
:100C3000F91E0A1F1B1F17FF05C016950795F7948D
:100C4000E794319687E016950795F794E7948A958F
:100C5000D1F705C0EE24FF248701EFEFF0E06E2FFF
:100C6000679566276795902F9F77D794DD24D79453
:100C70008E2F8695492F462B582F5D29B701CA0123
:100C80001F910F91FF90EF90DF900895FC01DB0121
:100C9000408151812281622F6F7770E0221F2227CD
:100CA000221F9381892F880F822B282F30E0991FD4
:100CB0009927991F11969C93119721153105A9F534
:100CC000411551056105710511F482E037C082E8D4
:100CD0009FEF13969C938E9312979A01AB0167E056
:100CE000220F331F441F551F6A95D1F783E08C9361
:100CF0000DC0220F331F441F551F12968D919C91DA
:100D00001397019713969C938E931297203080E04F
:100D1000380780E0480780E4580758F314962D936D
:100D20003D934D935C93179708952F3F310579F4C8
:100D3000411551056105710519F484E08C930895FE
:100D400064FF03C081E08C9312C01C9210C02F5727
:100D5000304013963C932E93129783E08C9387E058
:100D6000440F551F661F771F8A95D1F7706414963C
:100D70004D935D936D937C93179708951F93DC01BA
:100D8000FB019C91923008F447C08081823008F4C6
:100D900043C0943051F411961C91843099F58181AF
:100DA000682F70E0611B71093FC0843021F09230E0
:100DB00031F48230B9F18181882389F12DC01196F7
:100DC0001C9111978230F1F081811817D9F4129695
:100DD0002D913C911397828193818217930794F010
:100DE00028173907BCF014968D919D910D90BC91F8
:100DF000A02D2481358146815781281739074A075C
:100E00005B0718F4112341F00AC082179307A40767
:100E1000B50740F4112319F061E070E005C06FEFF1
:100E20007FEF02C060E070E0CB011F910895DF9377
:100E3000CF930F92CDB7DEB78983A1E4B0E0E1E4B0
:100E4000F0E08081982F987F89818770892B8C931F
:100E5000A1E4B0E0E1E4F0E0808188608C930F9041
:100E6000CF91DF910895DF93CF93CDB7DEB7E1E463
:100E7000F0E088E18083E1E4F0E01082CF91DF913F
:100E80000895DF93CF93CDB7DEB7EAE2F0E088E1D3
:100E90008083E0E4F0E086E88083E9E2F0E083E349
:100EA0008083E0E4F0E01082CF91DF910895DF933A
:100EB000CF930F92CDB7DEB78983EBE2F0E080816C
:100EC000829586958770882F90E08170907000974A
:100ED000A1F3ECE2F0E0898180830F90CF91DF9164
:100EE0000895DF93CF93CDB7DEB7EBE2F0E08081DA
:100EF0008823DCF7ECE2F0E08081CF91DF91089568
:100F0000DF93CF9300D000D0CDB7DEB79B838A8329
:100F10006C83198219820EC08981282F30E08A8162
:100F20009B81FC01E20FF31F80810E94570789819A
:100F30008F5F898399818C81981770F30F900F9040
:100F40000F900F90CF91DF910895DF93CF93CDB79E
:100F5000DEB7AFE4B0E0EFE4F0E080818E7F8C9309
:100F6000AFE4B0E0EFE4F0E0808182608C93AEE427
:100F7000B0E0EEE4F0E0808188608C93AEE4B0E015
:100F8000EEE4F0E0808180618C93AFE4B0E0EFE4C8
:100F9000F0E080818F7B8C93AFE4B0E0EFE4F0E091
:100FA000808180688C93AFE4B0E0EFE4F0E0808172
:100FB0008F7E8C93AFE4B0E0EFE4F0E0808180625C
:100FC0008C93E6E4F0E080E29EE491838083AEE4DB
:100FD000B0E0EEE4F0E080818E7F8C93AEE4B0E090
:100FE000EEE4F0E0808182608C93AEE4B0E0EEE469
:100FF000F0E080818B7F8C9383E065E041E00E948C
:10100000AF0D83E064E041E00E94AF0DCF91DF912E
:101010000895DF93CF9300D0CDB7DEB79A8389834D
:10102000EAE4F0E089819A81918380830F900F90A8
:10103000CF91DF910895DF93CF93CDB7DEB7AEE4C4
:10104000B0E0EEE4F0E08081887F82608C93CF9105
:10105000DF910895DF93CF93CDB7DEB7E6E4F0E0FC
:1010600080819181CF91DF910895DF93CF9300D05C
:101070000F92CDB7DEB789838981282F30E03B837B
:101080002A838A819B81009731F02A813B8121301C
:10109000310549F00FC0AEE4B0E0EEE4F0E080814D
:1010A00080648C9307C0AEE4B0E0EEE4F0E08081B1
:1010B0008F7B8C930F900F900F90CF91DF910895BD
:1010C000DF93CF93CDB7DEB7A9E5B0E0E9E5F0E077
:1010D000808180628C93CF91DF910895DF93CF93CD
:1010E000CDB7DEB7A9E5B0E0E9E5F0E080818F7D1E
:1010F0008C93CF91DF910895DF93CF9300D0CDB73C
:10110000DEB79A83898389819A819093C7018093FE
:10111000C6010F900F90CF91DF9108951F920F920B
:101120000FB60F9211242F933F934F935F936F93BA
:101130007F938F939F93AF93BF93EF93FF93DF932F
:10114000CF93CDB7DEB78091C6019091C7010097CC
:1011500029F0E091C601F091C7010995CF91DF9187
:10116000FF91EF91BF91AF919F918F917F916F917F
:101170005F914F913F912F910F900FBE0F901F9055
:101180001895DF93CF93CDB7DEB7A7E3B0E0E7E3E1
:10119000F0E0808188608C93E3E5F0E082E080837A
:1011A000E2E5F0E086EF8083A9E5B0E0E9E5F0E074
:1011B000808181608C9381E00E94F50ACF91DF915C
:1011C0000895DF93CF930F92CDB7DEB789838981DE
:1011D000853B10F084EB89838981882F90E0A0E023
:1011E000B0E028EE33E040E050E0BC01CD010E94C9
:1011F0003D21DC01CB0124EB30E040E050E0BC01BC
:10120000CD010E947021DA01C90188519C4F909351
:101210009E0180939D010F90CF91DF910895DF9300
:10122000CF9300D000D0CDB7DEB79A838983E2E5B3
:10123000F0E086EF80838091C8019091C90101960A
:101240009093C9018093C8018091C8019091C90110
:101250008130910541F4A8E3B0E0E8E3F0E080815B
:1012600088608C9326C080919D0190919E012AE018
:1012700030E0B9010E945C21CB019C018091C80142
:101280009091C9012817390741F4A8E3B0E0E8E3D9
:10129000F0E08081877F8C930CC08091C801909191
:1012A000C90127E0803D920720F01092C9011092F9
:1012B000C8010F900F900F900F90CF91DF9108957C
:1012C000DF93CF93CDB7DEB781E065E040E00E94C9
:1012D000AF0D81E067E040E00E94AF0D81E066E085
:1012E00041E00E94AF0DADE2B0E0EDE2F0E08081C0
:1012F0008F7E8C93ADE2B0E0EDE2F0E0808180641F
:101300008C93CF91DF910895DF93CF930F92CDB758
:10131000DEB78983EFE2F0E089818083EEE2F0E0DE
:1013200080818823DCF7EFE2F0E080810F90CF919D
:10133000DF910895DF93CF930F92CDB7DEB7898306
:10134000EFE2F0E089818083EEE2F0E080818823A3
:10135000DCF70F90CF91DF910895DF93CF93CDB756
:10136000DEB7EEE2F0E080818823DCF7EFE2F0E028
:101370008081CF91DF910895DF93CF93CDB7DEB712
:10138000A1E2B0E0E1E2F0E080818E7F8C93A1E207
:10139000B0E0E1E2F0E080818D7F8C93E3E2F0E069
:1013A00082E08083A6E5B0E0E6E5F0E0808184603D
:1013B0008C93A6E5B0E0E6E5F0E0808181608C9357
:1013C000CF91DF910895DF93CF930F92CDB7DEB722
:1013D0008983E2E2F0E08981880F8083A6E5B0E0AE
:1013E000E6E5F0E0808180648C93A6E5B0E0E6E578
:1013F000F0E0808184608C930F90CF91DF9108950D
:10140000DF93CF930F92CDB7DEB71982E6E5F0E018
:1014100084EA8083E6E5F0E080818823DCF7E1E27E
:10142000F0E08081882F90E0887F9070883091056F
:1014300011F081E0898389810F90CF91DF91089528
:10144000DF93CF930F92CDB7DEB71982E6E5F0E0D8
:1014500084EA8083E6E5F0E080818823DCF7E1E23E
:10146000F0E08081882F90E0887F90708031910536
:1014700011F082E0898389810F90CF91DF910895E7
:10148000DF93CF9300D0CDB7DEB78A831982E3E232
:10149000F0E08A81880F8083E6E5F0E084E88083CD
:1014A000E6E5F0E080818823DCF7E1E2F0E080818E
:1014B000882F90E0887F90708831910511F083E04B
:1014C000898389810F900F90CF91DF910895DF93E9
:1014D000CF9300D0CDB7DEB78A831982E3E2F0E084
:1014E0008A81882F90E0880F991F81608083E6E5CC
:1014F000F0E084E88083E6E5F0E080818823DCF793
:10150000E1E2F0E08081882F90E0887F9070803465
:10151000910511F084E0898389810F900F90CF911C
:10152000DF910895DF93CF9300D00F92CDB7DEB750
:101530009B838A831982A6E5B0E0E6E5F0E080812E
:1015400080688C93E6E5F0E080818823DCF7E1E2B7
:10155000F0E08081882F90E0887F90708035910541
:1015600039F4E3E2F0E08081EA81FB81808302C00C
:1015700086E0898389810F900F900F90CF91DF9142
:101580000895DF93CF9300D0CDB7DEB78A83198259
:10159000E3E2F0E08A818083A6E5B0E0E6E5F0E0F2
:1015A000808180688C93E6E5F0E080818823DCF719
:1015B000E1E2F0E08081882F90E0887F90708832AF
:1015C000910511F085E0898389810F900F90CF916B
:1015D000DF910895DF93CF93CDB7DEB7E6E5F0E076
:1015E00084E98083CF91DF910895DF93CF9300D07A
:1015F0000F92CDB7DEB789838981282F30E03B83F6
:101600002A838A819B81009769F02A813B8121305E
:10161000310579F4AFE5B0E0EFE5F0E08081806876
:101620008C9307C0AFE5B0E0EFE5F0E080818F7705
:101630008C930F900F900F90CF91DF910895DF93CF
:10164000CF9300D000D0CDB7DEB789836A8389817C
:10165000282F30E03C832B838B819C818130910546
:1016600001F12B813C812230310589F18B819C81F4
:10167000009709F041C08A81813041F4ABE5B0E0C8
:10168000EBE5F0E0808180648C9336C08A8188230A
:1016900099F5ABE5B0E0EBE5F0E080818F7B8C93D2
:1016A0002BC08A81813041F4ABE5B0E0EBE5F0E09E
:1016B000808180688C9320C08A818823E9F4ABE51F
:1016C000B0E0EBE5F0E080818F778C9315C08A81E4
:1016D000813041F4ABE5B0E0EBE5F0E08081806281
:1016E0008C930AC08A81882339F4ABE5B0E0EBE53E
:1016F000F0E080818F7D8C930F900F900F900F9072
:10170000CF91DF910895DF93CF93CDB7DEB72A97BE
:101710000FB6F894DEBF0FBECDBF89836A8389817F
:10172000282F30E03A87298789859A85813091056D
:1017300009F466C029853A852230310509F4BBC019
:1017400089859A85009709F0D5C08A81282F30E0D5
:1017500038872F838F8198858130910521F12F81E2
:101760003885223031052CF48F819885009761F0FF
:10177000C1C02F8138852230310521F18F819885B4
:101780008330910571F1B6C0A5E5B0E0E5E5F0E084
:1017900080818E7F8C93A5E5B0E0E5E5F0E0808167
:1017A0008D7F8C93A7C0A5E5B0E0E5E5F0E08081F2
:1017B00081608C93A5E5B0E0E5E5F0E080818D7F68
:1017C0008C9398C0A5E5B0E0E5E5F0E080818E7FE0
:1017D0008C93A5E5B0E0E5E5F0E0808182608C9334
:1017E00089C0A5E5B0E0E5E5F0E0808181608C93FB
:1017F000A5E5B0E0E5E5F0E0808182608C937AC0F9
:101800008A81282F30E03E832D838D819E81813017
:10181000910521F12D813E81223031052CF48D81FD
:101820009E81009761F066C02D813E812230310596
:1018300021F18D819E818330910571F15BC0A5E519
:10184000B0E0E5E5F0E080818B7F8C93A5E5B0E02A
:10185000E5E5F0E08081877F8C934CC0A5E5B0E0A2
:10186000E5E5F0E0808184608C93A5E5B0E0E5E5F6
:10187000F0E08081877F8C933DC0A5E5B0E0E5E591
:10188000F0E080818B7F8C93A5E5B0E0E5E5F0E0AA
:10189000808188608C932EC0A5E5B0E0E5E5F0E09E
:1018A000808184608C93A5E5B0E0E5E5F0E080817F
:1018B00088608C931FC08A81282F30E03C832B8363
:1018C0008B819C818230910531F02B813C812330CA
:1018D000310549F00FC0A4E5B0E0E4E5F0E0808117
:1018E0008F7B8C9307C0A4E5B0E0E4E5F0E0808155
:1018F00080648C932A960FB6F894DEBF0FBECDBFDE
:10190000CF91DF910895DF93CF9300D000D000D026
:10191000CDB7DEB789837B836A838A819B810097F9
:1019200019F421E02E832EC08981282F30E03D83D9
:101930002C838C819D818130910581F02C813D81AA
:101940002230310591F08C819D810097A1F48A812C
:101950009B819093D3018093D2010DC08A819B819A
:101960009093D5018093D40106C08A819B81909386
:10197000D7018093D6018981833018F092E09E834D
:1019800001C01E828E8126960FB6F894DEBF0FBE70
:10199000CDBFCF91DF910895DF93CF93CDB7DEB761
:1019A000A5E5B0E0E5E5F0E080818B7F8C93A5E5CF
:1019B000B0E0E5E5F0E08081877F8C9381E00E94D4
:1019C000F50AABE5B0E0EBE5F0E0808180688C9350
:1019D000CF91DF9108951F920F920FB60F921124AD
:1019E0002F933F934F935F936F937F938F939F9327
:1019F000AF93BF93EF93FF93DF93CF93CDB7DEB752
:101A00008091D2019091D301009729F0E091D20109
:101A1000F091D3010995CF91DF91FF91EF91BF91A3
:101A2000AF919F918F917F916F915F914F913F9176
:101A30002F910F900FBE0F901F9018951F920F922D
:101A40000FB60F9211242F933F934F935F936F9391
:101A50007F938F939F93AF93BF93EF93FF93DF9306
:101A6000CF93CDB7DEB78091D4019091D501009787
:101A700029F0E091D401F091D5010995CF91DF9142
:101A8000FF91EF91BF91AF919F918F917F916F9156
:101A90005F914F913F912F910F900FBE0F901F902C
:101AA00018951F920F920FB60F9211242F933F9308
:101AB0004F935F936F937F938F939F93AF93BF9356
:101AC000EF93FF93DF93CF93CDB7DEB78091D6012D
:101AD0009091D701009729F0E091D601F091D701BC
:101AE0000995CF91DF91FF91EF91BF91AF919F91B8
:101AF0008F917F916F915F914F913F912F910F90B7
:101B00000FBE0F901F901895DF93CF93CDB7DEB720
:101B1000EAE3F0E01082E7E3F0E01082E4E3F0E0D3
:101B20001082E1E3F0E01082EBE3F0E01082E8E302
:101B3000F0E01082E5E3F0E01082E2E3F0E01082F2
:101B4000E9E3F0E01082E6E3F0E01082E3E3F0E0A6
:101B50001082E0E3F0E01082CF91DF910895DF93EF
:101B6000CF93CDB7DEB727970FB6F894DEBF0FBE81
:101B7000CDBF89836A834B838B81813009F06FC02D
:101B80008981282F30E03F832E838E819F81813091
:101B9000910549F12E813F81223031052CF48E814F
:101BA0009F81009761F0D2C02E813F8122303105A4
:101BB00071F18E819F8183309105E9F1C7C0AAE35D
:101BC000B0E0EAE3F0E08081482F8A81282F30E0FE
:101BD00081E090E0022E02C0880F991F0A94E2F77C
:101BE000842B8C93B3C0A7E3B0E0E7E3F0E08081FF
:101BF000482F8A81282F30E081E090E0022E02C039
:101C0000880F991F0A94E2F7842B8C939FC0A4E35A
:101C1000B0E0E4E3F0E08081482F8A81282F30E0B3
:101C200081E090E0022E02C0880F991F0A94E2F72B
:101C3000842B8C938BC0A1E3B0E0E1E3F0E08081E2
:101C4000482F8A81282F30E081E090E0022E02C0E8
:101C5000880F991F0A94E2F7842B8C9377C08B81AD
:101C6000882309F073C08981282F30E03D832C83BD
:101C70008C819D818130910559F12C813D812230EB
:101C800031052CF48C819D81009769F05FC02C8117
:101C90003D812230310589F18C819D818330910510
:101CA00009F440C053C0AAE3B0E0EAE3F0E0808169
:101CB000482F8A81282F30E081E090E0022E02C078
:101CC000880F991F0A94E2F7809584238C933EC075
:101CD000A7E3B0E0E7E3F0E08081482F8A81282F76
:101CE00030E081E090E0022E02C0880F991F0A9434
:101CF000E2F7809584238C9329C0A4E3B0E0E4E369
:101D0000F0E08081482F8A81282F30E081E090E048
:101D1000022E02C0880F991F0A94E2F7809584234F
:101D20008C9314C0A1E3B0E0E1E3F0E08081482FA0
:101D30008A81282F30E081E090E0022E02C0880FD7
:101D4000991F0A94E2F7809584238C9327960FB607
:101D5000F894DEBF0FBECDBFCF91DF910895DF9322
:101D6000CF93CDB7DEB727970FB6F894DEBF0FBE7F
:101D7000CDBF89836A834B838B81813009F06FC02B
:101D80008981282F30E03F832E838E819F8181308F
:101D9000910549F12E813F81223031052CF48E814D
:101DA0009F81009761F0D2C02E813F8122303105A2
:101DB00071F18E819F8183309105E9F1C7C0ABE35A
:101DC000B0E0EBE3F0E08081482F8A81282F30E0FB
:101DD00081E090E0022E02C0880F991F0A94E2F77A
:101DE000842B8C93B3C0A8E3B0E0E8E3F0E08081FB
:101DF000482F8A81282F30E081E090E0022E02C037
:101E0000880F991F0A94E2F7842B8C939FC0A5E357
:101E1000B0E0E5E3F0E08081482F8A81282F30E0B0
:101E200081E090E0022E02C0880F991F0A94E2F729
:101E3000842B8C938BC0A2E3B0E0E2E3F0E08081DE
:101E4000482F8A81282F30E081E090E0022E02C0E6
:101E5000880F991F0A94E2F7842B8C9377C08B81AB
:101E6000882309F073C08981282F30E03D832C83BB
:101E70008C819D818130910559F12C813D812230E9
:101E800031052CF48C819D81009769F05FC02C8115
:101E90003D812230310589F18C819D81833091050E
:101EA00009F440C053C0ABE3B0E0EBE3F0E0808165
:101EB000482F8A81282F30E081E090E0022E02C076
:101EC000880F991F0A94E2F7809584238C933EC073
:101ED000A8E3B0E0E8E3F0E08081482F8A81282F72
:101EE00030E081E090E0022E02C0880F991F0A9432
:101EF000E2F7809584238C9329C0A5E3B0E0E5E365
:101F0000F0E08081482F8A81282F30E081E090E046
:101F1000022E02C0880F991F0A94E2F7809584234D
:101F20008C9314C0A2E3B0E0E2E3F0E08081482F9C
:101F30008A81282F30E081E090E0022E02C0880FD5
:101F4000991F0A94E2F7809584238C9327960FB605
:101F5000F894DEBF0FBECDBFCF91DF910895DF9320
:101F6000CF9300D000D000D0CDB7DEB78A836B838B
:101F700019828A81282F30E03E832D834D815E8136
:101F80004130510541F18D819E818230910534F4BB
:101F90002D813E812115310561F053C04D815E8157
:101FA0004230510551F18D819E8183309105B9F107
:101FB00048C0E9E3F0E08081282F30E08B81882F52
:101FC00090E0A90102C0559547958A95E2F7CA01AC
:101FD0008170898339C0E6E3F0E08081282F30E00A
:101FE0008B81882F90E0A90102C0559547958A956D
:101FF000E2F7CA018170898327C0E3E3F0E08081C2
:10200000282F30E08B81882F90E0A90102C05595E0
:1020100047958A95E2F7CA018170898315C0E0E38C
:10202000F0E08081282F30E08B81882F90E0A9019B
:1020300002C0559547958A95E2F7CA018170898358
:1020400003C05FEF5C8302C089818C838C812696FC
:102050000FB6F894DEBF0FBECDBFCF91DF910895CC
:10206000DF93CF9300D000D0CDB7DEB789836A83EA
:102070008981282F30E03C832B838B819C818130A8
:10208000910549F12B813C81223031052CF48B8163
:102090009C81009761F05AC02B813C812230310530
:1020A00071F18B819C8183309105E9F14FC0ABE3E5
:1020B000B0E0EBE3F0E08081482F8A81282F30E008
:1020C00081E090E0022E02C0880F991F0A94E2F787
:1020D00084278C933BC0A8E3B0E0E8E3F0E0808184
:1020E000482F8A81282F30E081E090E0022E02C044
:1020F000880F991F0A94E2F784278C9327C0A5E3E1
:10210000B0E0E5E3F0E08081482F8A81282F30E0BD
:1021100081E090E0022E02C0880F991F0A94E2F736
:1021200084278C9313C0A2E3B0E0E2E3F0E0808167
:10213000482F8A81282F30E081E090E0022E02C0F3
:10214000880F991F0A94E2F784278C930F900F90C1
:102150000F900F90CF91DF910895DF93CF93CDB77C
:10216000DEB760970FB6F894DEBF0FBECDBF898390
:102170006A838981282F30E0388B2F878F85988953
:102180008130910531F1EF85F889E230F10534F4C1
:102190002F8538892115310561F04AC08F859889CE
:1021A0008230910531F1EF85F889E330F10589F14D
:1021B0003FC02AE330E03E872D878A81882319F0CB
:1021C0003FEF3C8701C01C862C85ED85FE85208372
:1021D0002FC087E390E09B878A878A81882319F044
:1021E0009FEF998701C019862985EA85FB852083A1
:1021F0001FC084E390E098878F838A81882319F039
:102200009FEF9E8301C01E822E81EF81F88520837F
:102210000FC081E390E09D838C838A81882319F02D
:102220009FEF9B8301C01B822B81EC81FD8120836A
:1022300060960FB6F894DEBF0FBECDBFCF91DF9191
:102240000895DF93CF9300D000D0CDB7DEB7898358
:102250006A838981282F30E03C832B838B819C818A
:1022600081309105D1F02B813C81223031052CF455
:102270008B819C81009761F01EC02B813C812230B4
:10228000310581F08B819C818330910581F013C0F1
:10229000EBE3F0E08A8180830EC0E8E3F0E08A811E
:1022A000808309C0E5E3F0E08A81808304C0E2E333
:1022B000F0E08A8180830F900F900F900F90CF9164
:1022C000DF910895DF93CF9300D000D0CDB7DEB774
:1022D0008A8319828A81282F30E03C832B838B816B
:1022E0009C8181309105D1F02B813C8122303105D8
:1022F0002CF48B819C81009761F01EC02B813C8166
:102300002230310581F08B819C818330910581F0F1
:1023100013C0E9E3F0E0808189830EC0E6E3F0E0DA
:102320008081898309C0E3E3F0E08081898304C070
:10233000E0E3F0E08081898389810F900F900F9016
:102340000F90CF91DF910895DF93CF93CDB7DEB794
:10235000A7E2B0E0E7E2F0E0808180648C93A7E23E
:10236000B0E0E7E2F0E080818F778C93A7E2B0E005
:10237000E7E2F0E080818F7D8C93A6E2B0E0E6E2B8
:10238000F0E080818E7F8C93A6E2B0E0E6E2F0E0A0
:10239000808182608C93A6E2B0E0E6E2F0E080818A
:1023A00084608C93A6E2B0E0E6E2F0E080818F7D6D
:1023B0008C93A6E2B0E0E6E2F0E08081877F8C9328
:1023C000A6E2B0E0E6E2F0E0808180688C93CF91F5
:1023D000DF910895DF93CF930F92CDB7DEB7898356
:1023E000A7E2B0E0E7E2F0E08081982F907E89815B
:1023F0008F70892B8C93A6E2B0E0E6E2F0E080815A
:1024000080648C93E6E2F0E0808182958F70882F63
:1024100090E0817090700097A9F3A6E2B0E0E6E248
:10242000F0E0808180618C93E4E2F0E08081918132
:102430000F90CF91DF910895DF93CF93CDB7DEB7A3
:1024400080E060E041E00E94AF0D80E061E041E0AB
:102450000E94AF0D80E062E041E00E94AF0D80E09D
:1024600063E041E00E94AF0DCF91DF910895DF93CB
:10247000CF93CDB7DEB7E8970FB6F894DEBF0FBEA7
:10248000CDBF80E060E041E00E94AF0E80E061E0FF
:1024900040E00E94AF0E80E062E040E00E94AF0E9C
:1024A00080E063E040E00E94AF0E80E090E0A0E2B8
:1024B000B1E48DAB9EABAFABB8AF6DA97EA98FA9D0
:1024C00098AD20E030E04AEF54E40E941F02DC01A6
:1024D000CB0189AB9AABABABBCAB69A97AA98BA991
:1024E0009CA920E030E040E85FE30E9425048823B7
:1024F0002CF481E090E098AB8FA73FC069A97AA93E
:102500008BA99CA920E03FEF4FE757E40E94C50349
:1025100018164CF56DA97EA98FA998AD20E030E082
:1025200040E251E40E941F02DC01CB01BC01CD015D
:102530000E944900DC01CB0198AB8FA70FC088EC4B
:1025400090E09EA78DA78DA59EA50197F1F79EA768
:102550008DA78FA598A9019798AB8FA78FA598A94C
:10256000009769F714C069A97AA98BA99CA90E9450
:102570004900DC01CB0198AB8FA78FA598A99CA738
:102580008BA78BA59CA50197F1F79CA78BA780E053
:1025900060E040E00E94AF0E80E061E041E00E9418
:1025A000AF0E80E062E040E00E94AF0E80E063E0AA
:1025B00040E00E94AF0E80E090E0A0E2B1E48FA383
:1025C00098A7A9A7BAA76FA178A589A59AA520E081
:1025D00030E04AEF54E40E941F02DC01CB018BA3E0
:1025E0009CA3ADA3BEA36BA17CA18DA19EA120E065
:1025F00030E040E85FE30E94250488232CF481E06A
:1026000090E09AA389A33FC06BA17CA18DA19EA15C
:1026100020E03FEF4FE757E40E94C50318164CF542
:102620006FA178A589A59AA520E030E040E251E4A9
:102630000E941F02DC01CB01BC01CD010E944900B8
:10264000DC01CB019AA389A30FC088EC90E098A38A
:102650008F8F8F8D98A10197F1F798A38F8F89A104
:102660009AA101979AA389A389A19AA1009769F7D2
:1026700014C06BA17CA18DA19EA10E944900DC0128
:10268000CB019AA389A389A19AA19E8F8D8F8D8D4D
:102690009E8D0197F1F79E8F8D8F80E060E040E086
:1026A0000E94AF0E80E061E040E00E94AF0E80E04B
:1026B00062E041E00E94AF0E80E063E040E00E94F3
:1026C000AF0E80E090E0A0E2B1E4898F9A8FAB8FEB
:1026D000BC8F698D7A8D8B8D9C8D20E030E04AEF28
:1026E00054E40E941F02DC01CB018D8B9E8BAF8BCB
:1026F000B88F6D897E898F89988D20E030E040E821
:102700005FE30E94250488232CF481E090E09C8BF9
:102710008B8B3FC06D897E898F89988D20E03FEF3C
:102720004FE757E40E94C50318164CF5698D7A8D62
:102730008B8D9C8D20E030E040E251E40E941F022E
:10274000DC01CB01BC01CD010E944900DC01CB01C1
:102750009C8B8B8B0FC088EC90E09A8B898B89893E
:102760009A890197F1F79A8B898B8B899C890197BC
:102770009C8B8B8B8B899C89009769F714C06D8922
:102780007E898F89988D0E944900DC01CB019C8B4A
:102790008B8B8B899C89988B8F878F8598890197E4
:1027A000F1F7988B8F8780E060E040E00E94AF0EE9
:1027B00080E061E040E00E94AF0E80E062E040E037
:1027C0000E94AF0E80E063E041E00E94AF0E80E027
:1027D00090E0A0E2B1E48B879C87AD87BE876B85D4
:1027E0007C858D859E8520E030E04AEF54E40E9490
:1027F0001F02DC01CB018F839887A987BA876F817D
:10280000788589859A8520E030E040E85FE30E9482
:10281000250488232CF481E090E09E838D833FC0C3
:102820006F81788589859A8520E03FEF4FE757E4EF
:102830000E94C50318164CF56B857C858D859E8599
:1028400020E030E040E251E40E941F02DC01CB01B5
:10285000BC01CD010E944900DC01CB019E838D8328
:102860000FC088EC90E09C838B838B819C810197C7
:10287000F1F79C838B838D819E8101979E838D834D
:102880008D819E81009769F714C06F817885898555
:102890009A850E944900DC01CB019E838D838D8146
:1028A0009E819A83898389819A810197F1F79A831E
:1028B0008983E8960FB6F894DEBF0FBECDBFCF91E7
:1028C000DF9108950F931F93DF93CF93CDB7DEB7BA
:1028D000C757D0400FB6F894DEBF0FBECDBFFE0184
:1028E000EB58FF4F91838083FE01E958FF4F6083CF
:1028F000FE01EB58FF4F80819181CC01A0E0B0E058
:10290000BC01CD010E94A904DC01CB01BC01CD01B9
:1029100026E636E646EE5FE30E941903DC01CB01B2
:102920008E010D581F4FBC01CD010E944900DC01F2
:10293000CB01F80191838083FE01EF58FF4F118294
:102940001082EFC4FE01E958FF4F8081882309F00F
:10295000D6C280E060E041E00E94AF0E80E061E01E
:1029600040E00E94AF0E80E062E040E00E94AF0EC7
:1029700080E063E040E00E94AF0EFE01E359FF4FAC
:1029800080E090E0A0E2B1E480839183A283B383EE
:102990008E0107591F4FFE01E359FF4F608171817E
:1029A0008281938120E030E04AEF54E40E941F02CC
:1029B000DC01CB01F80180839183A283B383FE0104
:1029C000E759FF4F608171818281938120E030E07F
:1029D00040E85FE30E942504882344F4FE01E9599E
:1029E000FF4F81E090E09183808364C0FE01E7594E
:1029F000FF4F608171818281938120E03FEF4FE73B
:102A000057E40E94C50318160CF043C0FE01E359B9
:102A1000FF4F608171818281938120E030E040E24C
:102A200051E40E941F02DC01CB018E0109591F4FA6
:102A3000BC01CD010E944900DC01CB01F80191836A
:102A400080831FC0FE01EB59FF4F88EC90E091831B
:102A50008083FE01EB59FF4F808191810197F1F74F
:102A6000FE01EB59FF4F91838083DE01A959BF4FCF
:102A7000FE01E959FF4F80819181019711969C9346
:102A80008E93FE01E959FF4F808191810097D1F625
:102A900027C08E0109591F4FFE01E759FF4F608182
:102AA0007181828193810E944900DC01CB01F80190
:102AB00091838083DE01AD59BF4FFE01E959FF4F7D
:102AC000808191818D939C93FE01ED59FF4F808110
:102AD00091810197F1F7FE01ED59FF4F91838083BA
:102AE00080E060E040E00E94AF0E80E061E041E005
:102AF0000E94AF0EFE01E15AFF4F80E090E0A0E29D
:102B0000B1E480839183A283B3838E01055A1F4F62
:102B1000FE01E15AFF4F608171818281938120E043
:102B200030E04AEF54E40E941F02DC01CB01F801BF
:102B300080839183A283B383FE01E55AFF4F6081B6
:102B400071818281938120E030E040E85FE30E9460
:102B50002504882344F4FE01E75AFF4F81E090E00A
:102B60009183808364C0FE01E55AFF4F60817181CB
:102B70008281938120E03FEF4FE757E40E94C50335
:102B800018160CF043C0FE01E15AFF4F60817181BD
:102B90008281938120E030E040E251E40E941F02F4
:102BA000DC01CB018E01075A1F4FBC01CD010E94F1
:102BB0004900DC01CB01F801918380831FC0FE0135
:102BC000E95AFF4F88EC90E091838083FE01E95A37
:102BD000FF4F808191810197F1F7FE01E95AFF4F84
:102BE00091838083DE01A75ABF4FFE01E75AFF4F52
:102BF00080819181019711969C938E93FE01E75AF3
:102C0000FF4F808191810097D1F627C08E01075A2E
:102C10001F4FFE01E55AFF4F6081718182819381D0
:102C20000E944900DC01CB01F80191838083DE0121
:102C3000AB5ABF4FFE01E75AFF4F808191818D93C0
:102C40009C93FE01EB5AFF4F808191810197F1F730
:102C5000FE01EB5AFF4F9183808380E061E040E00A
:102C60000E94AF0E80E062E041E00E94AF0EFE01E4
:102C7000EF5AFF4F80E090E0A0E2B1E480839183BF
:102C8000A283B3838E01035B1F4FFE01EF5AFF4FF8
:102C9000608171818281938120E030E04AEF54E4C9
:102CA0000E941F02DC01CB01F80180839183A28383
:102CB000B383FE01E35BFF4F608171818281938169
:102CC00020E030E040E85FE30E942504882344F4DC
:102CD000FE01E55BFF4F81E090E09183808364C05B
:102CE000FE01E35BFF4F608171818281938120E06F
:102CF0003FEF4FE757E40E94C50318160CF043C09E
:102D0000FE01EF5AFF4F608171818281938120E043
:102D100030E040E251E40E941F02DC01CB018E0151
:102D2000055B1F4FBC01CD010E944900DC01CB01B6
:102D3000F801918380831FC0FE01E75BFF4F88ECA1
:102D400090E091838083FE01E75BFF4F808191815A
:102D50000197F1F7FE01E75BFF4F91838083DE016E
:102D6000A55BBF4FFE01E55BFF4F8081918101971D
:102D700011969C938E93FE01E55BFF4F80819181BC
:102D80000097D1F627C08E01055B1F4FFE01E35B64
:102D9000FF4F60817181828193810E944900DC0133
:102DA000CB01F80191838083DE01A95BBF4FFE0157
:102DB000E55BFF4F808191818D939C93FE01E95BE0
:102DC000FF4F808191810197F1F7FE01E95BFF4F91
:102DD0009183808380E062E040E00E94AF0E80E05B
:102DE00063E041E00E94AF0EFE01ED5BFF4F80E02B
:102DF00090E0A0E2B1E480839183A283B3838E014B
:102E0000015C1F4FFE01ED5BFF4F6081718182818C
:102E1000938120E030E04AEF54E40E941F02DC017D
:102E2000CB01F80180839183A283B383FE01FF96D7
:102E3000608171818281938120E030E040E85FE32E
:102E40000E94250488232CF481E090E09EAF8DAF92
:102E500046C0FE01FF96608171818281938120E0EE
:102E60003FEF4FE757E40E94C503181664F5FE01D3
:102E7000ED5BFF4F608171818281938120E030E0C2
:102E800040E251E40E941F02DC01CB01BC01CD01F4
:102E90000E944900DC01CB019EAF8DAF0FC088ECD2
:102EA00090E09CAF8BAF8BAD9CAD0197F1F79CAFE1
:102EB0008BAF8DAD9EAD01979EAF8DAF8DAD9EADAD
:102EC000009769F716C0FE01FF96608171818281CB
:102ED00093810E944900DC01CB019EAF8DAF8DAD87
:102EE0009EAD9AAF89AF89AD9AAD0197F1F79AAFD0
:102EF00089AF80E063E040E00E94AF0E06C2FE01B1
:102F0000E958FF4F8081813009F0FFC180E063E024
:102F100041E00E94AF0E80E062E040E00E94AF0E10
:102F200080E061E040E00E94AF0E80E060E040E0C1
:102F30000E94AF0E80E090E0A0E2B1E48DAB9EABCA
:102F4000AFABB8AF6DA97EA98FA998AD20E030E0F6
:102F50004AEF54E40E941F02DC01CB0189AB9AAB1B
:102F6000ABABBCAB69A97AA98BA99CA920E030E0E6
:102F700040E85FE30E94250488232CF481E090E080
:102F800098AB8FA73FC069A97AA98BA99CA920E01B
:102F90003FEF4FE757E40E94C50318164CF56DA9A3
:102FA0007EA98FA998AD20E030E040E251E40E9474
:102FB0001F02DC01CB01BC01CD010E944900DC01F4
:102FC000CB0198AB8FA70FC088EC90E09EA78DA790
:102FD0008DA59EA50197F1F79EA78DA78FA598A90E
:102FE000019798AB8FA78FA598A9009769F714C090
:102FF00069A97AA98BA99CA90E944900DC01CB018F
:1030000098AB8FA78FA598A99CA78BA78BA59CA5EC
:103010000197F1F79CA78BA780E063E040E00E9456
:10302000AF0E80E062E041E00E94AF0E80E090E0F1
:10303000A0E2B1E48FA398A7A9A7BAA76FA178A52A
:1030400089A59AA520E030E04AEF54E40E941F02CF
:10305000DC01CB018BA39CA3ADA3BEA36BA17CA180
:103060008DA19EA120E030E040E85FE30E942504AE
:1030700088232CF481E090E09AA389A33FC06BA140
:103080007CA18DA19EA120E03FEF4FE757E40E9475
:10309000C50318164CF56FA178A589A59AA520E05F
:1030A00030E040E251E40E941F02DC01CB01BC0190
:1030B000CD010E944900DC01CB019AA389A30FC076
:1030C00088EC90E098A38F8F8F8D98A10197F1F7EE
:1030D00098A38F8F89A19AA101979AA389A389A107
:1030E0009AA1009769F714C06BA17CA18DA19EA144
:1030F0000E944900DC01CB019AA389A389A19AA16E
:103100009E8F8D8F8D8D9E8D0197F1F79E8F8D8F68
:1031100080E062E040E00E94AF0E80E061E041E0CC
:103120000E94AF0E80E090E0A0E2B1E4898F9A8F18
:10313000AB8FBC8F698D7A8D8B8D9C8D20E030E0BC
:103140004AEF54E40E941F02DC01CB018D8B9E8B61
:10315000AF8BB88F6D897E898F89988D20E030E0A4
:1031600040E85FE30E94250488232CF481E090E08E
:103170009C8B8B8B3FC06D897E898F89988D20E0D9
:103180003FEF4FE757E40E94C50318164CF5698DD1
:103190007A8D8B8D9C8D20E030E040E251E40E94DE
:1031A0001F02DC01CB01BC01CD010E944900DC0102
:1031B000CB019C8B8B8B0FC088EC90E09A8B898B1A
:1031C00089899A890197F1F79A8B898B8B899C89D8
:1031D00001979C8B8B8B8B899C89009769F714C016
:1031E0006D897E898F89988D0E944900DC01CB0111
:1031F0009C8B8B8B8B899C89988B8F878F859889EB
:103200000197F1F7988B8F8780E061E040E00E94A2
:10321000AF0E80E060E041E00E94AF0E80E090E001
:10322000A0E2B1E48B879C87AD87BE876B857C85E8
:103230008D859E8520E030E04AEF54E40E941F0215
:10324000DC01CB018F839887A987BA876F81788546
:1032500089859A8520E030E040E85FE30E942504FC
:1032600088232CF481E090E09E838D833FC06F81A2
:10327000788589859A8520E03FEF4FE757E40E94E3
:10328000C50318164CF56B857C858D859E8520E0E1
:1032900030E040E251E40E941F02DC01CB01BC019E
:1032A000CD010E944900DC01CB019E838D830FC0BC
:1032B00088EC90E09C838B838B819C810197F1F754
:1032C0009C838B838D819E8101979E838D838D81CD
:1032D0009E81009769F714C06F81788589859A85EA
:1032E0000E944900DC01CB019E838D838D819E81EC
:1032F0009A83898389819A810197F1F79A838983D7
:1033000080E060E040E00E94AF0EDE01AF58BF4FAA
:10331000FE01EF58FF4F80819181019611969C9399
:103320008E93FE01EF58FF4F20813181FE01ED5851
:10333000FF4F80819181969587959695879528175F
:10334000390708F4FFCAC958DF4F0FB6F894DEBF3B
:103350000FBECDBFCF91DF911F910F910895DF93E5
:10336000CF93CDB7DEB782E06FEF0E942111CF91EE
:10337000DF910895DF93CF930F92CDB7DEB78983A6
:1033800082E06FEF0E94AD1089818A3070F48981EC
:10339000882F90E0FC01E156FE4F8081982F909598
:1033A00082E0692F0E94211106C09091A00182E065
:1033B000692F0E9421110F90CF91DF910895DF9323
:1033C000CF93CDB7DEB72F970FB6F894DEBF0FBE01
:1033D000CDBF8F8780E064E040E00E94AF0E80E0C8
:1033E00065E040E00E94AF0E81E06F850E942111F0
:1033F00080E066E041E00E94AF0E80E090E0A0E84F
:10340000BFE38B879C87AD87BE876B857C858D8569
:103410009E8520E030E04AEF54E40E941F02DC0168
:10342000CB018F839887A987BA876F817885898533
:103430009A8520E030E040E85FE30E94250488237D
:103440002CF481E090E09E838D833FC06F8178856E
:1034500089859A8520E03FEF4FE757E40E94C50336
:1034600018164CF56B857C858D859E8520E030E0B7
:1034700040E251E40E941F02DC01CB01BC01CD01FE
:103480000E944900DC01CB019E838D830FC088EC34
:1034900090E09C838B838B819C810197F1F79C83C7
:1034A0008B838D819E8101979E838D838D819E81EB
:1034B000009769F714C06F81788589859A850E9485
:1034C0004900DC01CB019E838D838D819E819A838F
:1034D000898389819A810197F1F79A83898380E0B2
:1034E00066E040E00E94AF0E2F960FB6F894DEBF64
:1034F0000FBECDBFCF91DF910895DF93CF93CDB7AE
:10350000DEB72F970FB6F894DEBF0FBECDBF8F8703
:1035100080E064E041E00E94AF0E80E065E040E0C2
:103520000E94AF0E81E06F850E94211180E066E06D
:1035300041E00E94AF0E80E090E0A0E8BFE38B87FF
:103540009C87AD87BE876B857C858D859E8520E0B9
:1035500030E04AEF54E40E941F02DC01CB018F836C
:103560009887A987BA876F81788589859A8520E0B1
:1035700030E040E85FE30E94250488232CF481E0DA
:1035800090E09E838D833FC06F81788589859A8581
:1035900020E03FEF4FE757E40E94C50318164CF5B3
:1035A0006B857C858D859E8520E030E040E251E48E
:1035B0000E941F02DC01CB01BC01CD010E94490029
:1035C000DC01CB019E838D830FC088EC90E09C834F
:1035D0008B838B819C810197F1F79C838B838D81F9
:1035E0009E8101979E838D838D819E81009769F7CF
:1035F00014C06F81788589859A850E944900DC0115
:10360000CB019E838D838D819E819A83898389815D
:103610009A810197F1F79A83898380E066E040E020
:103620000E94AF0E2F960FB6F894DEBF0FBECDBF2F
:10363000CF91DF910895DF93CF93CDB7DEB7E897B1
:103640000FB6F894DEBF0FBECDBF81E06FEF0E94D2
:10365000AD1080E064E041E00E94AF0D80E065E0E5
:1036600041E00E94AF0D80E066E041E00E94AF0DB6
:1036700080E090E0A8E4B2E48DAB9EABAFABB8AF16
:103680006DA97EA98FA998AD20E030E04AEF54E4FF
:103690000E941F02DC01CB0189AB9AABABABBCAB88
:1036A00069A97AA98BA99CA920E030E040E85FE3F2
:1036B0000E94250488232CF481E090E098AB8FA72A
:1036C0003FC069A97AA98BA99CA920E03FEF4FE7E9
:1036D00057E40E94C50318164CF56DA97EA98FA961
:1036E00098AD20E030E040E251E40E941F02DC018E
:1036F000CB01BC01CD010E944900DC01CB0198AB9C
:103700008FA70FC088EC90E09EA78DA78DA59EA5E2
:103710000197F1F79EA78DA78FA598A9019798AB60
:103720008FA78FA598A9009769F714C069A97AA9EE
:103730008BA99CA90E944900DC01CB0198AB8FA703
:103740008FA598A99CA78BA78BA59CA50197F1F79E
:103750009CA78BA788E30E94DF1980E090E0A0E897
:10376000BFE38FA398A7A9A7BAA76FA178A589A53A
:103770009AA520E030E04AEF54E40E941F02DC01E9
:10378000CB018BA39CA3ADA3BEA36BA17CA18DA1F8
:103790009EA120E030E040E85FE30E9425048823FA
:1037A0002CF481E090E09AA389A33FC06BA17CA197
:1037B0008DA19EA120E03FEF4FE757E40E94C50393
:1037C00018164CF56FA178A589A59AA520E030E0E0
:1037D00040E251E40E941F02DC01CB01BC01CD019B
:1037E0000E944900DC01CB019AA389A30FC088EC99
:1037F00090E098A38F8F8F8D98A10197F1F798A3F0
:103800008F8F89A19AA101979AA389A389A19AA1CF
:10381000009769F714C06BA17CA18DA19EA10E94A5
:103820004900DC01CB019AA389A389A19AA19E8FAB
:103830008D8F8D8D9E8D0197F1F79E8F8D8F8CE0F2
:103840000E94DF1980E090E0A0E8BFE3898F9A8FA3
:10385000AB8FBC8F698D7A8D8B8D9C8D20E030E095
:103860004AEF54E40E941F02DC01CB018D8B9E8B3A
:10387000AF8BB88F6D897E898F89988D20E030E07D
:1038800040E85FE30E94250488232CF481E090E067
:103890009C8B8B8B3FC06D897E898F89988D20E0B2
:1038A0003FEF4FE757E40E94C50318164CF5698DAA
:1038B0007A8D8B8D9C8D20E030E040E251E40E94B7
:1038C0001F02DC01CB01BC01CD010E944900DC01DB
:1038D000CB019C8B8B8B0FC088EC90E09A8B898BF3
:1038E00089899A890197F1F79A8B898B8B899C89B1
:1038F00001979C8B8B8B8B899C89009769F714C0EF
:103900006D897E898F89988D0E944900DC01CB01E9
:103910009C8B8B8B8B899C89988B8F878F859889C3
:103920000197F1F7988B8F8781E00E94DF1980E083
:1039300090E0A0EAB1E48B879C87AD87BE876B855A
:103940007C858D859E8520E030E04AEF54E40E941E
:103950001F02DC01CB018F839887A987BA876F810B
:10396000788589859A8520E030E040E85FE30E9411
:10397000250488232CF481E090E09E838D833FC052
:103980006F81788589859A8520E03FEF4FE757E47E
:103990000E94C50318164CF56B857C858D859E8528
:1039A00020E030E040E251E40E941F02DC01CB0144
:1039B000BC01CD010E944900DC01CB019E838D83B7
:1039C0000FC088EC90E09C838B838B819C81019756
:1039D000F1F79C838B838D819E8101979E838D83DC
:1039E0008D819E81009769F714C06F8178858985E4
:1039F0009A850E944900DC01CB019E838D838D81D5
:103A00009E819A83898389819A810197F1F79A83AC
:103A1000898386E00E94DF19E8960FB6F894DEBF2E
:103A20000FBECDBFCF91DF910895DF93CF9300D02C
:103A30000F92CDB7DEB79B838A8319820EC089812E
:103A4000282F30E08A819B81FC01E20FF31F8081E7
:103A50000E947D1A89818F5F89838981282F30E0B8
:103A60008A819B81FC01E20FF31F8081882339F753
:103A70000F900F900F90CF91DF910895DF93CF9328
:103A800000D000D00F92CDB7DEB78A836B83198246
:103A90008B81282F30E03D832C838C819D81009782
:103AA00031F02C813D812130310521F006C08A8121
:103AB000898303C08A81805C8983898180580E94C0
:103AC000DF190F900F900F900F900F90CF91DF9113
:103AD0000895DF93CF93CDB7DEB727970FB6F8944D
:103AE000DEBF0FBECDBF8B837D836C834E832F8360
:103AF0008B81882F90E0880F991F880F991F880F5E
:103B0000991F8A838A81805C0E94DF1919820EC006
:103B10008981282F30E08C819D81FC01E20FF31F09
:103B200080810E947D1A89818F5F89838981883095
:103B300078F38E816F810E943E1D8B810E947D1AD9
:103B400027960FB6F894DEBF0FBECDBFCF91DF91A1
:103B50000895DF93CF93CDB7DEB728970FB6F894CB
:103B6000DEBF0FBECDBF98878F838F81988500976A
:103B700021F480E30E947D1A3AC0198220C0898115
:103B8000E82FFF27E7FDF0958F8198852AE030E048
:103B9000B9010E945C21282F205DCE010296E80F1A
:103BA000F91F208389818F5F89838F8198852AE01F
:103BB00030E0B9010E945C21CB0198878F838F810F
:103BC00098850097E1F60DC08981282F332727FDBE
:103BD0003095CE010296FC01E20FF31F80810E9416
:103BE0007D1A898181508983898188236CF7289681
:103BF0000FB6F894DEBF0FBECDBFCF91DF91089511
:103C0000DF93CF93CDB7DEB782E060E041E00E9462
:103C1000AF0D82E061E041E00E94AF0D82E062E022
:103C200041E00E94AF0D82E063E041E00E94AF0DF1
:103C300082E060E041E00E94AF0E82E061E041E09E
:103C40000E94AF0E82E062E041E00E94AF0E82E08F
:103C500063E041E00E94AF0E82E064E040E00E9439
:103C6000AF0D82E065E040E00E94AF0D82E066E0CB
:103C700040E00E94AF0D82E067E040E00E94AF0D9F
:103C800082E064E041E00E94AF0E82E065E041E046
:103C90000E94AF0E82E066E041E00E94AF0E82E03B
:103CA00067E041E00E94AF0ECF91DF910895DF936E
:103CB000CF93CDB7DEB762970FB6F894DEBF0FBED5
:103CC000CDBF8FEF8A8B188AD7C08889882F90E064
:103CD000FC01E355FE4F908182E0692F40E00E9495
:103CE000AF0E1F86B6C08F85882F90E0FC01E75588
:103CF000FE4F908182E0692F0E94AF0F898B8989E6
:103D0000882309F0A3C08F85882F90E0FC01E75538
:103D1000FE4F908182E0692F0E94AF0F898B80E077
:103D200090E0A8E4B2E48B879C87AD87BE876B8563
:103D30007C858D859E8520E030E04AEF54E40E942A
:103D40001F02DC01CB018F839887A987BA876F8117
:103D5000788589859A8520E030E040E85FE30E941D
:103D6000250488232CF481E090E09E838D833FC05E
:103D70006F81788589859A8520E03FEF4FE757E48A
:103D80000E94C50318164CF56B857C858D859E8534
:103D900020E030E040E251E40E941F02DC01CB0150
:103DA000BC01CD010E944900DC01CB019E838D83C3
:103DB0000FC088EC90E09C838B838B819C81019762
:103DC000F1F79C838B838D819E8101979E838D83E8
:103DD0008D819E81009769F714C06F8178858985F0
:103DE0009A850E944900DC01CB019E838D838D81E1
:103DF0009E819A83898389819A810197F1F79A83B9
:103E000089838989882311F58F85482F50E0888917
:103E1000282F30E0CA01880F991F880F991F820F41
:103E2000931FFC01EF54FE4F80818A8B0CC08F855D
:103E3000882F90E0FC01E755FE4F908182E0692FCA
:103E40000E94AF0F898B8989882389F38F858F5FC3
:103E50008F878F85843008F446CF8889882F90E03B
:103E6000FC01E355FE4F908182E0692F41E00E9402
:103E7000AF0E88898F5F888B8889843008F425CFBE
:103E80008A8962960FB6F894DEBF0FBECDBFCF9180
:103E9000DF910895DF93CF930F92CDB7DEB70E94E5
:103EA000571E898389818F3FD1F389810F90CF91EC
:103EB000DF9108950F931F93DF93CF930F92CDB7A8
:103EC000DEB789838981853B10F084EB89830AE41E
:103ED00010E08981882F90E0A0E0B0E028EE33E088
:103EE00040E050E0BC01CD010E943D21DC01CB014E
:103EF00024EB30E040E050E0BC01CD010E94702195
:103F0000DA01C90188519C4FF801918380830F9099
:103F1000CF91DF911F910F9108950F931F93DF931E
:103F2000CF930F92CDB7DEB789838981853B10F09F
:103F300084EB898308E410E08981882F90E0A0E079
:103F4000B0E028EE33E040E050E0BC01CD010E943B
:103F50003D21DC01CB0124EB30E040E050E0BC012E
:103F6000CD010E947021DA01C90188519C4FF801EE
:103F7000918380830F90CF91DF911F910F910895CE
:103F8000DF93CF93CDB7DEB7A2970FB6F894DEBF1D
:103F90000FBECDBF0E94840D0E94001E0E941B1BFD
:103FA0000E941C120E94C1080E94A5070E941B08C3
:103FB00081E00E94F50A82E064E040E00E94AF0DDB
:103FC00082E064E041E00E94AF0E81E063E041E006
:103FD0000E94AF0D83E063E041E00E94AF0D8AE5EF
:103FE00088A38AE58F8F8AE58E8F88A10E945A1F49
:103FF0008F8D0E948D1F0E944A1F8D8F80E090E060
:10400000A8E4B3E4898F9A8FAB8FBC8F698D7A8DCA
:104010008B8D9C8D20E030E04AEF54E40E941F021B
:10402000DC01CB018D8B9E8BAF8BB88F6D897E8928
:104030008F89988D20E030E040E85FE30E942504FE
:1040400088232CF481E090E09C8B8B8B3FC06D89A2
:104050007E898F89988D20E03FEF4FE757E40E94DB
:10406000C50318164CF5698D7A8D8B8D9C8D20E0DB
:1040700030E040E251E40E941F02DC01CB01BC01B0
:10408000CD010E944900DC01CB019C8B8B8B0FC0C2
:1040900088EC90E09A8B898B89899A890197F1F74E
:1040A0009A8B898B8B899C8901979C8B8B8B8B89B5
:1040B0009C89009769F714C06D897E898F89988DD6
:1040C0000E944900DC01CB019C8B8B8B8B899C89E6
:1040D000988B8F878F8598890197F1F7988B8F87B9
:1040E0008D8D282F30E03AA329A389A19AA184338A
:1040F0009105B1F129A13AA12533310534F489A103
:104100009AA182339105B1F035C029A13AA1263395
:104110003105D9F089A19AA18833910559F581E03B
:104120000E94DF1988A1865F88A380E690E00E9444
:10413000151D20C081E00E94DF1988A18A5088A344
:104140008DE690E00E94151D15C081E00E94DF19E8
:104150008F8D865F8F8F8AE790E00E94151D0AC0C1
:1041600081E00E94DF198F8D8A508F8F87E890E061
:104170000E94151D88A1853B10F084EB88A38F8DCC
:10418000853B10F084EB8F8F88A10E945A1F8F8D82
:104190000E948D1F80E090E0A0EAB1E48B879C87AD
:1041A000AD87BE876B857C858D859E8520E030E060
:1041B0004AEF54E40E941F02DC01CB018F839887F1
:1041C000A987BA876F81788589859A8520E030E054
:1041D00040E85FE30E94250488232CF481E090E00E
:1041E0009E838D833FC06F81788589859A8520E085
:1041F0003FEF4FE757E40E94C50318164CF56B8557
:104200007C858D859E8520E030E040E251E40E946F
:104210001F02DC01CB01BC01CD010E944900DC0181
:10422000CB019E838D830FC088EC90E09C838B83B1
:104230008B819C810197F1F79C838B838D819E817B
:1042400001979E838D838D819E81009769F7D3CEE0
:104250006F81788589859A850E944900DC01CB01B0
:104260009E838D838D819E819A83898389819A81A2
:104270000197F1F79A838983BECE629FD001739F25
:10428000F001829FE00DF11D649FE00DF11D929FF2
:10429000F00D839FF00D749FF00D659FF00D992731
:1042A000729FB00DE11DF91F639FB00DE11DF91F55
:1042B000BD01CF0111240895AA1BBB1B51E107C00A
:1042C000AA1FBB1FA617B70710F0A61BB70B881FA6
:1042D000991F5A95A9F780959095BC01CD01089535
:1042E000A1E21A2EAA1BBB1BFD010DC0AA1FBB1FFA
:1042F000EE1FFF1FA217B307E407F50720F0A21B6C
:10430000B30BE40BF50B661F771F881F991F1A94D8
:1043100069F760957095809590959B01AC01BD0102
:10432000CF0108952F923F924F925F926F927F92AA
:104330008F929F92AF92BF92CF92DF92EF92FF92B5
:104340000F931F93CF93DF93CDB7DEB7CA1BDB0B61
:104350000FB6F894DEBF0FBECDBF09942A88398806
:1043600048885F846E847D848C849B84AA84B9840D
:10437000C884DF80EE80FD800C811B81AA81B98119
:10438000CE0FD11D0FB6F894DEBF0FBECDBFED012D
:064390000895F894FFCF30
:10439600205331206D6F76652063772000205331DE
:1043A600206D6F76652063637700205332206D6F32
:1043B60076652063772000205332206D6F76652066
:1043C6006363772000000000000000000000010287
:1043D600020303030304040404040404040505059A
:1043E6000505050505050505050505050506060674
:1043F6000606060606060606060606060606060657
:104406000606060606060606060606060607070743
:104416000707070707070707070707070707070726
:104426000707070707070707070707070707070716
:104436000707070707070707070707070707070706
:1044460007070707070707070707070707080808F3
:1044560008080808080808080808080808080808D6
:1044660008080808080808080808080808080808C6
:1044760008080808080808080808080808080808B6
:1044860008080808080808080808080808080808A6
:104496000808080808080808080808080808080896
:1044A6000808080808080808080808080808080886
:1044B6000808080808080808080808080808080876
:1044C60008080808080808080808080808DC05C0DD
:1044D600F9A4B0999282F8809004050607000102BB
:1044E600033738392F3435362A3132332D43303DB0
:0244F6002B0099
:00000001FF
