:100000000C942A000C943F000C943F000C943F0089
:100010000C943F000C943F000C943F000C943F0064
:100020000C943F000C943F000C943F000C943F0054
:100030000C943F000C943F000C943F000C943F0044
:100040000C943F000C943F000C943F000C943F0034
:100050000C943F0011241FBECFE5D8E0DEBFCDBF1A
:1000600010E0A0E6B0E0EEE3F9E002C005900D92EA
:10007000AA36B107D9F70E9491040C949D040C9400
:100080000000DF93CF93CDB7DEB7EAE3F0E0108254
:10009000E7E3F0E01082E4E3F0E01082E1E3F0E077
:1000A0001082EBE3F0E01082E8E3F0E01082E5E399
:1000B000F0E01082E2E3F0E01082E9E3F0E0108289
:1000C000E6E3F0E01082E3E3F0E01082E0E3F0E04A
:1000D0001082CF91DF910895DF93CF93CDB7DEB734
:1000E00027970FB6F894DEBF0FBECDBF89836A8312
:1000F0004B838B81813009F06FC08981282F30E0DC
:100100003F832E838E819F818130910549F12E811D
:100110003F81223031052CF48E819F81009761F060
:10012000D2C02E813F812230310571F18E819F81B5
:1001300083309105E9F1C7C0AAE3B0E0EAE3F0E05B
:100140008081482F8A81282F30E081E090E0022EC4
:1001500002C0880F991F0A94E2F7842B8C93B3C0D6
:10016000A7E3B0E0E7E3F0E08081482F8A81282F01
:1001700030E081E090E0022E02C0880F991F0A94BF
:10018000E2F7842B8C939FC0A4E3B0E0E4E3F0E0BB
:100190008081482F8A81282F30E081E090E0022E74
:1001A00002C0880F991F0A94E2F7842B8C938BC0AE
:1001B000A1E3B0E0E1E3F0E08081482F8A81282FBD
:1001C00030E081E090E0022E02C0880F991F0A946F
:1001D000E2F7842B8C9377C08B81882309F073C05E
:1001E0008981282F30E03D832C838C819D81813053
:1001F000910559F12C813D81223031052CF48C81FF
:100200009D81009769F05FC02C813D8122303105CE
:1002100089F18C819D818330910509F440C053C0E0
:10022000AAE3B0E0EAE3F0E08081482F8A81282F3A
:1002300030E081E090E0022E02C0880F991F0A94FE
:10024000E2F7809584238C933EC0A7E3B0E0E7E318
:10025000F0E08081482F8A81282F30E081E090E013
:10026000022E02C0880F991F0A94E2F7809584231A
:100270008C9329C0A4E3B0E0E4E3F0E08081482F50
:100280008A81282F30E081E090E0022E02C0880FA2
:10029000991F0A94E2F7809584238C9314C0A1E3FC
:1002A000B0E0E1E3F0E08081482F8A81282F30E040
:1002B00081E090E0022E02C0880F991F0A94E2F7B5
:1002C000809584238C9327960FB6F894DEBF0FBEDB
:1002D000CDBFCF91DF910895DF93CF93CDB7DEB738
:1002E00027970FB6F894DEBF0FBECDBF89836A8310
:1002F0004B838B81813009F06FC08981282F30E0DA
:100300003F832E838E819F818130910549F12E811B
:100310003F81223031052CF48E819F81009761F05E
:10032000D2C02E813F812230310571F18E819F81B3
:1003300083309105E9F1C7C0ABE3B0E0EBE3F0E057
:100340008081482F8A81282F30E081E090E0022EC2
:1003500002C0880F991F0A94E2F7842B8C93B3C0D4
:10036000A8E3B0E0E8E3F0E08081482F8A81282FFD
:1003700030E081E090E0022E02C0880F991F0A94BD
:10038000E2F7842B8C939FC0A5E3B0E0E5E3F0E0B7
:100390008081482F8A81282F30E081E090E0022E72
:1003A00002C0880F991F0A94E2F7842B8C938BC0AC
:1003B000A2E3B0E0E2E3F0E08081482F8A81282FB9
:1003C00030E081E090E0022E02C0880F991F0A946D
:1003D000E2F7842B8C9377C08B81882309F073C05C
:1003E0008981282F30E03D832C838C819D81813051
:1003F000910559F12C813D81223031052CF48C81FD
:100400009D81009769F05FC02C813D8122303105CC
:1004100089F18C819D818330910509F440C053C0DE
:10042000ABE3B0E0EBE3F0E08081482F8A81282F36
:1004300030E081E090E0022E02C0880F991F0A94FC
:10044000E2F7809584238C933EC0A8E3B0E0E8E314
:10045000F0E08081482F8A81282F30E081E090E011
:10046000022E02C0880F991F0A94E2F78095842318
:100470008C9329C0A5E3B0E0E5E3F0E08081482F4C
:100480008A81282F30E081E090E0022E02C0880FA0
:10049000991F0A94E2F7809584238C9314C0A2E3F9
:1004A000B0E0E2E3F0E08081482F8A81282F30E03D
:1004B00081E090E0022E02C0880F991F0A94E2F7B3
:1004C000809584238C9327960FB6F894DEBF0FBED9
:1004D000CDBFCF91DF910895DF93CF9300D000D0AF
:1004E00000D0CDB7DEB78A836B8319828A81282F2B
:1004F00030E03E832D834D815E814130510541F1D5
:100500008D819E818230910534F42D813E812115AB
:10051000310561F053C04D815E814230510551F18A
:100520008D819E8183309105B9F148C0E9E3F0E007
:100530008081282F30E08B81882F90E0A90102C0B4
:10054000559547958A95E2F7CA018170898339C02C
:10055000E6E3F0E08081282F30E08B81882F90E067
:10056000A90102C0559547958A95E2F7CA018170A5
:10057000898327C0E3E3F0E08081282F30E08B817E
:10058000882F90E0A90102C0559547958A95E2F71A
:10059000CA018170898315C0E0E3F0E08081282FD3
:1005A00030E08B81882F90E0A90102C055954795D6
:1005B0008A95E2F7CA018170898303C05FEF5C838B
:1005C00002C089818C838C8126960FB6F894DEBF99
:1005D0000FBECDBFCF91DF910895DF93CF9300D0B1
:1005E00000D0CDB7DEB789836A838981282F30E0B8
:1005F0003C832B838B819C818130910549F12B8138
:100600003C81223031052CF48B819C81009761F074
:100610005AC02B813C812230310571F18B819C8144
:1006200083309105E9F14FC0ABE3B0E0EBE3F0E0DC
:100630008081482F8A81282F30E081E090E0022ECF
:1006400002C0880F991F0A94E2F784278C933BC05D
:10065000A8E3B0E0E8E3F0E08081482F8A81282F0A
:1006600030E081E090E0022E02C0880F991F0A94CA
:10067000E2F784278C9327C0A5E3B0E0E5E3F0E040
:100680008081482F8A81282F30E081E090E0022E7F
:1006900002C0880F991F0A94E2F784278C9313C035
:1006A000A2E3B0E0E2E3F0E08081482F8A81282FC6
:1006B00030E081E090E0022E02C0880F991F0A947A
:1006C000E2F784278C930F900F900F900F90CF91AB
:1006D000DF910895DF93CF93CDB7DEB760970FB664
:1006E000F894DEBF0FBECDBF89836A838981282F2E
:1006F00030E0388B2F878F8598898130910531F1D3
:10070000EF85F889E230F10534F42F853889211519
:10071000310561F04AC08F8598898230910531F1A9
:10072000EF85F889E330F10589F13FC02AE330E035
:100730003E872D878A81882319F03FEF3C8701C0CF
:100740001C862C85ED85FE8520832FC087E390E0F5
:100750009B878A878A81882319F09FEF998701C038
:1007600019862985EA85FB8520831FC084E390E0F4
:1007700098878F838A81882319F09FEF9E8301C019
:100780001E822E81EF81F88520830FC081E390E0E7
:100790009D838C838A81882319F09FEF9B8301C0FE
:1007A0001B822B81EC81FD81208360960FB6F8942B
:1007B000DEBF0FBECDBFCF91DF910895DF93CF9302
:1007C00000D000D0CDB7DEB789836A838981282F16
:1007D00030E03C832B838B819C8181309105D1F06B
:1007E0002B813C81223031052CF48B819C81009738
:1007F00061F01EC02B813C812230310581F08B815C
:100800009C818330910581F013C0EBE3F0E08A8195
:1008100080830EC0E8E3F0E08A81808309C0E5E3CD
:10082000F0E08A81808304C0E2E3F0E08A81808383
:100830000F900F900F900F90CF91DF910895DF935D
:10084000CF9300D000D0CDB7DEB78A8319828A81DA
:10085000282F30E03C832B838B819C818130910554
:10086000D1F02B813C81223031052CF48B819C818D
:10087000009761F01EC02B813C812230310581F050
:100880008B819C818330910581F013C0E9E3F0E016
:10089000808189830EC0E6E3F0E08081898309C00E
:1008A000E3E3F0E08081898304C0E0E3F0E080814D
:1008B000898389810F900F900F900F90CF91DF91D6
:1008C0000895DF93CF93CDB7DEB783E06FEF0E943B
:1008D000DE03CF91DF910895DF93CF930F92CDB7D1
:1008E000DEB7898383E06FEF0E946A0389818A30D3
:1008F00070F48981882F90E0FC01E05AFF4F8081DD
:10090000982F909583E0692F0E94DE0306C0909196
:10091000610083E0692F0E94DE030F90CF91DF9189
:100920000895DF93CF93CDB7DEB70E9441000E94B8
:0E093000610483E00E946C04FFCFF894FFCFB7
:0A093E00C0F9A4B0999282F88090ED
:00000001FF
