:100000000C942A000C94EC070C9415080C943E08F0
:100010000C9447000C9447000C940C060C94470079
:100020000C9447000C9447000C9447000C94470034
:100030000C9447000C9447000C9447000C94470024
:100040000C9447000C9447000C9447000C94470014
:100050000C94470011241FBECFE5D8E0DEBFCDBF12
:1000600012E0A0E6B0E0EEE7F0E202C005900D92EB
:10007000A630B107D9F712E0A6E0B2E001C01D92A8
:10008000A831B107E1F70E94DB0E0C943D100C94EF
:100090000000EF92FF920F931F937B018C0120E0F1
:1000A00030E040E05FE40E94CB0288238CF0C8017E
:1000B000B70120E030E040E05FE40E94C1010E940F
:1000C000FB029B01AC01205030404040504806C02C
:1000D000C801B7010E94FB029B01AC01B901CA0132
:1000E0001F910F91FF90EF900895A0E0B0E0EBE733
:1000F000F0E00C940610DC012B01FA019C91923087
:1001000008F439C1EB018881823008F433C194309E
:1001100069F4843009F02FC111969C91119789815F
:10012000981709F428C1AAEDB0E025C1843009F47C
:1001300021C18230A9F4923009F01DC19A01AD01AC
:1001400088E0EA010990AE01E90109929E0181501F
:10015000C1F7E201898111969C918923818308C1AD
:10016000923009F407C112962D903C901397EB0141
:100170008A819B811496AD90BD90CD90DC901797AD
:10018000EC80FD800E811F819101281B390BB90184
:1001900037FF04C066277727621B730B6032710537
:1001A0000CF061C0121613066CF537014801062EDB
:1001B00004C096948794779467940A94D2F721E0C8
:1001C00030E040E050E004C0220F331F441F551FB1
:1001D0006A95D2F721503040404050402E213F21B7
:1001E00040235123211531054105510521F021E01E
:1001F00030E040E050E079018A01E628F72808293C
:1002000019293CC0232BD1F1260E371E350146019A
:10021000062E04C096948794779467940A94D2F734
:1002200021E030E040E050E004C0220F331F441FC3
:10023000551F6A95D2F721503040404050402A2146
:100240003B214C215D21211531054105510521F04E
:1002500021E030E040E050E059016A01A628B728CB
:10026000C828D9280BC0821593052CF01C01AA249C
:10027000BB24650103C0EE24FF24870111969C91E5
:10028000D20111968C91981709F445C0992339F041
:10029000A80197012A193B094C095D0906C0A6016E
:1002A00095012E193F09400B510B57FD08C01182D3
:1002B0003382228224833583468357831DC081E0A5
:1002C00081833382228288279927DC01821B930B4A
:1002D000A40BB50B84839583A683B7830DC0220F2F
:1002E000331F441F551F24833583468357838281E0
:1002F000938101979383828324813581468157813D
:10030000DA01C9010197A109B1098F5F9F4FAF4F72
:10031000BF4328F30BC0918333822282EA0CFB1C7B
:100320000C1D1D1DE482F5820683178383E0808304
:10033000248135814681578157FF1AC0C901AA27F8
:1003400097FDA095BA2F81709070A070B0705695EF
:10035000479537952795822B932BA42BB52B848318
:100360009583A683B7838281938101969383828349
:10037000DF0101C0D201CD01CDB7DEB7E2E10C94BF
:100380002210A0E2B0E0E7ECF1E00C9412106983D7
:100390007A838B839C832D833E834F835887E9E048
:1003A000EE2EF12CEC0EFD1ECE010196B7010E943F
:1003B000EC048E010F5E1F4FCE010596B8010E941E
:1003C000EC048A8991E089278A8BC701B801AE01C4
:1003D000475E5F4F0E9475000E941704A096E6E0FA
:1003E0000C942E10A0E2B0E0E8EFF1E00C941210B3
:1003F00069837A838B839C832D833E834F835887C5
:10040000F9E0EF2EF12CEC0EFD1ECE010196B701A6
:100410000E94EC048E010F5E1F4FCE010596B801BD
:100420000E94EC04C701B801AE01475E5F4F0E9415
:1004300075000E941704A096E6E00C942E10A8E127
:10044000B0E0E5E2F2E00C940E1069837A838B83CE
:100450009C832D833E834F835887B9E0EB2EF12C8C
:10046000EC0EFD1ECE010196B7010E94EC048E0138
:100470000F5E1F4FCE010596B8010E94EC0429853E
:10048000223008F47EC03989323010F4B8017CC0C3
:100490008A859A8989278A87243011F0223031F49D
:1004A000231709F06EC06AED70E06EC0343039F485
:1004B0001D861E861F86188A1C861B8604C0323045
:1004C00021F484E08987B7015FC02B853C858B8947
:1004D0009C89281B390B3C872B87ED84FE840F8574
:1004E0001889AD88BE88CF88D88CEA14FB040C0527
:1004F0001D0540F4EE0CFF1C001F111F2150304061
:100500003C872B8720E030E040E050E080E090E046
:10051000A0E0B0E460E070E0EA14FB040C051D0507
:1005200040F0282B392B4A2B5B2BEA18FB080C09CF
:100530001D09B695A79597958795EE0CFF1C001F92
:10054000111F6F5F7F4F6F31710531F7DA01C901FC
:100550008F779070A070B07080349105A105B105BF
:1005600061F427FD0AC0E114F1040105110529F029
:10057000205C3F4F4F4F5F4F20782D873E874F873E
:10058000588BBE01675F7F4FCB010E9417046896AE
:10059000EAE00C942A10A8E1B0E0E1EDF2E00C945E
:1005A000121069837A838B839C832D833E834F83D0
:1005B000588789E0E82EF12CEC0EFD1ECE01019645
:1005C000B7010E94EC048E010F5E1F4FCE0105960D
:1005D000B8010E94EC048985823040F0898982301C
:1005E00028F0C701B8010E94640501C08FEF68962A
:1005F000E6E00C942E10ACE0B0E0E1E0F3E00C9407
:10060000161069837A838B839C83CE010196BE0189
:100610006B5F7F4F0E94EC048D81823061F18230EC
:1006200050F1843021F48E81882351F12EC02F8126
:10063000388537FD20C06E812F3131051CF06623CF
:10064000F9F023C08EE190E0821B930B29853A8557
:100650004B855C8504C056954795379527958A95B7
:10066000D2F76623B1F050954095309521953F4FD4
:100670004F4F5F4F0EC020E030E040E050E009C037
:100680002FEF3FEF4FEF5FE704C020E030E040E0A6
:1006900050E8B901CA012C96E2E00C943210A8E0AF
:1006A000B0E0E5E5F3E00C940E107B018C016115E0
:1006B00071058105910519F482E0898360C083E0AA
:1006C00089838EE1C82ED12CDC82CB82ED82FE8222
:1006D0000F831887C801B7010E94C803FC01319736
:1006E000F7FF3BC0222733272E1B3F0B5701680122
:1006F000022E04C0D694C794B794A7940A94D2F754
:1007000040E050E060E070E081E090E0A0E0B0E028
:1007100004C0880F991FAA1FBB1F2A95D2F7019703
:10072000A109B1098E219F21A023B1230097A10522
:10073000B10521F041E050E060E070E04A295B291A
:100740006C297D294D835E836F8378878EE190E0ED
:100750008E1B9F0B9C838B8312C0309781F00E2ED3
:1007600004C0EE0CFF1C001F111F0A94D2F7ED828B
:10077000FE820F831887CE1ADF0ADC82CB821A82B0
:10078000CE0101960E9417042896EAE00C942A10E4
:10079000EF92FF920F931F937B018C0180E0E8168C
:1007A00080E0F80681E0080780E0180788F48FEF02
:1007B000E816F1040105110531F028F088E090E019
:1007C000A0E0B0E017C080E090E0A0E0B0E012C090
:1007D00080E0E81680E0F80680E0080781E018076E
:1007E00028F088E190E0A0E0B0E004C080E190E073
:1007F000A0E0B0E020E230E040E050E0281B390B00
:100800004A0B5B0B04C016950795F794E7948A95FD
:10081000D2F7F701EE51FF4F8081281B31094109C2
:100820005109C9011F910F91FF90EF900895DF9238
:10083000EF92FF920F931F93FC01E480F5800681F5
:100840001781D1808081823048F480E090E0A0E17F
:10085000B0E0E82AF92A0A2B1B2BA5C0843009F442
:100860009FC0823021F4EE24FF24870105C0E114EB
:10087000F1040105110519F4E0E0F0E096C0628191
:1008800073819FEF623879070CF05BC022E83FEF7D
:10089000261B370B2A3131052CF020E030E040E0F8
:1008A00050E02AC0B801A701022E04C076956795D2
:1008B000579547950A94D2F781E090E0A0E0B0E028
:1008C00004C0880F991FAA1FBB1F2A95D2F7019752
:1008D000A109B1098E219F21A023B1230097A10571
:1008E000B10521F081E090E0A0E0B0E09A01AB0119
:1008F000282B392B4A2B5B2BDA01C9018F7790709B
:10090000A070B07080349105A105B10539F427FFBE
:1009100009C0205C3F4F4F4F5F4F04C0215C3F4FE9
:100920004F4F5F4FE0E0F0E02030A0E03A07A0E05A
:100930004A07A0E45A0710F0E1E0F0E079018A01EB
:1009400027C06038710564F5FB01E158FF4FD801FD
:10095000C7018F779070A070B07080349105A105A9
:10096000B10539F4E7FE0DC080E490E0A0E0B0E00E
:1009700004C08FE390E0A0E0B0E0E80EF91E0A1F8B
:100980001B1F17FF05C016950795F794E79431963E
:1009900087E016950795F794E7948A95D1F705C0F7
:1009A000EE24FF248701EFEFF0E06E2F67956627B6
:1009B0006795902F9F77D794DD24D7948E2F8695B7
:1009C000492F462B582F5D29B701CA011F910F915E
:1009D000FF90EF90DF900895FC01DB014081518191
:1009E0002281622F6F7770E0221F2227221F9381BE
:1009F000892F880F822B282F30E0991F9927991F64
:100A000011969C93119721153105A9F541155105B2
:100A10006105710511F482E037C082E89FEF1396FB
:100A20009C938E9312979A01AB0167E0220F331FBC
:100A3000441F551F6A95D1F783E08C930DC0220F98
:100A4000331F441F551F12968D919C911397019748
:100A500013969C938E931297203080E0380780E0A5
:100A6000480780E4580758F314962D933D934D930F
:100A70005C93179708952F3F310579F4411551057F
:100A80006105710519F484E08C93089564FF03C037
:100A900081E08C9312C01C9210C02F5730401396E7
:100AA0003C932E93129783E08C9387E0440F551F5D
:100AB000661F771F8A95D1F7706414964D935D93E6
:100AC0006D937C93179708951F93DC01FB019C9114
:100AD000923008F447C08081823008F443C09430DB
:100AE00051F411961C91843099F58181682F70E042
:100AF000611B71093FC0843021F0923031F48230A3
:100B0000B9F18181882389F12DC011961C9111972B
:100B10008230F1F081811817D9F412962D913C9111
:100B20001397828193818217930794F028173907CE
:100B3000BCF014968D919D910D90BC91A02D2481B7
:100B4000358146815781281739074A075B0718F412
:100B5000112341F00AC082179307A407B50740F498
:100B6000112319F061E070E005C06FEF7FEF02C064
:100B700060E070E0CB011F91089591B58770987F78
:100B8000892B81BD81B5886081BD089588E181BDD3
:100B900011BC089588E18AB986E880BD83E389B9EC
:100BA00010BC08955D9BFECF8CB908955F9BFECF6E
:100BB0008CB10895FC0180E006C090815D9BFECF62
:100BC0009CB98F5F31968617C0F308959BBD8ABD8F
:100BD00008958EB5887F82608EBD089526B537B59D
:100BE000C9010895882319F0813041F404C08EB5FD
:100BF00080648EBD08958EB58F7B8EBD089589B7B4
:100C0000806289BF089589B78F7D89BF08959093C9
:100C10000B0280930A0208951F920F920FB60F9253
:100C200011242F933F934F935F936F937F938F93F1
:100C30009F93AF93BF93EF93FF93E0910A02F091DC
:100C40000B02309709F00995FF91EF91BF91AF9199
:100C50009F918F917F916F915F914F913F912F91D4
:100C60000F900FBE0F901F9018958FB58E7F8FBD80
:100C70008FB582608FBD8EB588608EBD8EB5806168
:100C80008EBD8FB580688FBD8FB58F7B8FBD8FB5C3
:100C900080628FBD8FB58F7E8FBD80E29EE497BD51
:100CA00086BD8EB58E7F8EBD8EB582608EBD8EB5B3
:100CB0008B7F8EBD83E065E041E00E94810883E088
:100CC00064E041E00E9481080895853B08F084EBD0
:100CD000682F70E080E090E028EE33E040E050E0E4
:100CE0000E94B10F24EB30E040E050E00E94E40F9E
:100CF00028513C4F3093E3012093E201089586EFA1
:100D000082BF80910C0290910D02019690930D028A
:100D100080930C0280910C0290910D02813091051C
:100D200011F4C39A089520910C0230910D02809124
:100D3000E2019091E3016AE070E00E94D00F261773
:100D4000370711F4C398089580910C0290910D0219
:100D5000805D974020F010920D0210920C020895D1
:100D6000BB9A82E083BF86EF82BF89B7816089BF6B
:100D700081E00E944B0708958FB9779BFECF8FB11A
:100D800008958FB9779BFECF0895779BFECF8FB1E3
:100D9000089581E065E040E00E94810881E067E01D
:100DA00040E00E94810881E066E041E00E94810805
:100DB0006C986E9A08950898099882E083B986B76E
:100DC000846086BF86B7816086BF0895880F82B928
:100DD00086B7806486BF86B7846086BF089584EA3C
:100DE00086BF06B607FEFDCF81B190E0887F8830D0
:100DF00009F091E0892F089584EA86BF06B607FEC0
:100E0000FDCF81B1887F803111F082E0089580E0CC
:100E10000895880F83B984E886BF06B607FEFDCF24
:100E200081B1887F883111F083E0089580E00895D2
:100E3000880F816083B984E886BF06B607FEFDCFC0
:100E400081B1887F803411F084E0089580E00895B6
:100E5000FC0186B7806886BF06B607FEFDCF81B16C
:100E6000887F803511F086E0089583B1808380E02B
:100E7000089583B986B7806886BF06B607FEFDCFA2
:100E800081B1887F883211F085E0089580E008956F
:100E900084E986BF0895882331F0813039F48FB713
:100EA00080688FBF08958FB78F778FBF0895813087
:100EB00079F0813018F0823001F514C0613019F4F6
:100EC0008BB7806413C06623C1F48BB78F7B0EC0D1
:100ED000613019F48BB7806809C0662371F48BB751
:100EE0008F7704C0613021F48BB780628BBF089587
:100EF000662319F48BB78F7D8BBF0895813009F17C
:100F0000813020F0823009F044C037C0613051F0A8
:100F1000613028F0623061F06330D9F50CC085B7DC
:100F20008E7F02C085B7816085BF85B78D7F23C066
:100F300085B78E7F02C085B7816085BF85B7826027
:100F40001AC0613051F0613028F0623061F06330D6
:100F500001F50CC085B78B7F02C085B7846085BF63
:100F600085B7877F08C085B78B7F02C085B784604F
:100F700085BF85B7886085BF0895623019F06330FA
:100F800041F404C084B78F7B84BF089584B7806424
:100F900084BF08956115710511F481E008958130D1
:100FA00051F0813018F0823089F40AC07093130236
:100FB0006093120209C0709315026093140204C07A
:100FC000709317026093160280E00895833010F04A
:100FD00082E0089580E008951F920F920FB60F925D
:100FE00011242F933F934F935F936F937F938F932E
:100FF0009F93AF93BF93EF93FF93E0911202F09111
:101000001302309709F00995FF91EF91BF91AF91CD
:101010009F918F917F916F915F914F913F912F9110
:101020000F900FBE0F901F9018951F920F920FB642
:101030000F9211242F933F934F935F936F937F935E
:101040008F939F93AF93BF93EF93FF93E09114021D
:10105000F0911502309709F00995FF91EF91BF913A
:10106000AF919F918F917F916F915F914F913F9140
:101070002F910F900FBE0F901F9018951F920F92F7
:101080000FB60F9211242F933F934F935F936F935B
:101090007F938F939F93AF93BF93EF93FF93E091D1
:1010A0001602F0911702309709F00995FF91EF9120
:1010B000BF91AF919F918F917F916F915F914F9170
:1010C0003F912F910F900FBE0F901F90189585B7ED
:1010D0008B7F85BF85B7877F85BF81E00E944B07E7
:1010E0008BB780688BBF08951ABA17BA14BA11BAB1
:1010F0001BBA18BA15BA12BA19BA16BA13BA10BA74
:1011000008954130B1F5813099F0813030F082306E
:10111000D1F0833009F067C021C02AB381E090E0AC
:1011200002C0880F991F6A95E2F7282B2ABB089501
:1011300027B381E090E002C0880F991F6A95E2F71B
:10114000282B27BB089524B381E090E002C0880FCC
:10115000991F6A95E2F7282B24BB089521B381E0FB
:1011600090E002C0880F991F6A95E2F7282B21BBF7
:1011700008954423C1F5813099F0813028F0823000
:10118000D9F0833081F524C02AB381E090E002C019
:10119000880F991F6A95E2F7809582238ABB08958C
:1011A00027B381E090E002C0880F991F6A95E2F7AB
:1011B0008095822387BB089524B381E090E002C02C
:1011C000880F991F6A95E2F78095822384BB089562
:1011D00021B381E090E002C0880F991F6A95E2F781
:1011E0008095822381BB08954130B1F5813099F01B
:1011F000813030F08230D1F0833009F067C021C0F7
:101200002BB381E090E002C0880F991F6A95E2F746
:10121000282B2BBB089528B381E090E002C0880FF3
:10122000991F6A95E2F7282B28BB089525B381E022
:1012300090E002C0880F991F6A95E2F7282B25BB22
:10124000089522B381E090E002C0880F991F6A954B
:10125000E2F7282B22BB08954423C1F5813099F091
:10126000813028F08230D9F0833081F524C02BB34F
:1012700081E090E002C0880F991F6A95E2F780959F
:1012800082238BBB089528B381E090E002C0880FD1
:10129000991F6A95E2F78095822388BB089525B34C
:1012A00081E090E002C0880F991F6A95E2F780956F
:1012B000822385BB089522B381E090E002C0880FAD
:1012C000991F6A95E2F78095822382BB0895813049
:1012D00051F0813030F0823041F0833079F08FEF7F
:1012E000089589B303C086B301C083B390E002C000
:1012F000959587956A95E2F78170089580B390E09F
:1013000002C0959587956A95E2F7817008958130BE
:1013100091F0813028F08230C9F0833061F521C02E
:101320002BB381E090E002C0880F991F6A95E2F725
:1013300028272BBB089528B381E090E002C0880FD6
:10134000991F6A95E2F7282728BB089525B381E005
:1013500090E002C0880F991F6A95E2F7282725BB05
:10136000089522B381E090E002C0880F991F6A952A
:10137000E2F7282722BB0895813071F0813028F0F0
:10138000823089F08330E1F415C0662311F480E0E7
:1013900001C08FEF8ABB0895662311F480E001C07D
:1013A0008FEF87BB0895662311F480E001C08FEFB3
:1013B00084BB0895662311F480E001C08FEF81BBE8
:1013C0000895813049F0813028F0823039F083303F
:1013D00041F406C06BBB089568BB089565BB0895D2
:1013E00062BB0895813051F0813030F0823041F09D
:1013F000833041F080E0089589B3089586B308955D
:1014000083B3089580B308953E9A3F983D983098ED
:10141000319A329A35983398379A089597B18F70E8
:10142000907E892B87B9369A349BFECF349A24B1AB
:1014300035B1C9010895AF92BF92CF92DF92EF927A
:10144000FF920F931F93CF93DF938C01EB0160E02A
:1014500070E0CB01BA010E944F0320E030E044E38A
:101460005EE30E941F020E9449005B01B694A794AC
:10147000B694A794CC24DD2480E2E82E8EE4F82EE6
:1014800013C1F8018581882309F086C08D818823E6
:1014900009F082C08081618141E00E94F408F80176
:1014A0008081628140E00E94F408F80180816381BC
:1014B00040E00E94F408F8018081648140E00E94CD
:1014C000F4088881698141E00E94F40888816A817A
:1014D00040E00E94F40888816B8140E00E94F4089B
:1014E00088816C8140E00E94F408C7010197F1F700
:1014F000F8018081618140E00E94F408F801808158
:10150000628141E00E94F4088881698140E00E9484
:10151000F40888816A8141E00E94F408C7010197BC
:10152000F1F7F8018081628140E00E94F408F8013F
:101530008081638141E00E94F40888816A8140E0F3
:101540000E94F40888816B8141E00E94F408C70181
:101550000197F1F7F8018081638140E00E94F4086F
:10156000F8018081648141E00E94F40888816B81E8
:1015700040E00E94F40888816C8141E00E94F408F8
:10158000C7010197F1F7F8018081648140E00E9472
:10159000F40888816C8182C0F8018081648141E017
:1015A0000E94F408F8018081638140E00E94F40801
:1015B000F8018081628140E00E94F408F801808196
:1015C000618140E00E94F40888816C8141E00E94C2
:1015D000F40888816B8140E00E94F40888816A8168
:1015E00040E00E94F4088881698140E00E94F4088C
:1015F000C7010197F1F7F8018081648140E00E9402
:10160000F408F8018081638141E00E94F408888138
:101610006C8140E00E94F40888816B8141E00E9467
:10162000F408C7010197F1F7F8018081638140E078
:101630000E94F408F8018081628141E00E94F40870
:1016400088816B8140E00E94F40888816A8141E0D2
:101650000E94F408C7010197F1F7F80180816281C7
:1016600040E00E94F408F8018081618141E00E941D
:10167000F40888816A8140E00E94F40888816981C9
:1016800041E00E94F408C7010197F1F7F801808159
:10169000618140E00E94F4088881698140E00E94F5
:1016A000F4080894C11CD11CCA14DB0408F4E9CE68
:1016B000DF91CF911F910F91FF90EF90DF90CF902E
:1016C000BF90AF900895CF92DF92EF92FF920F9369
:1016D0001F93CF93DF93EC0180E090E00E944F03D3
:1016E00020E030E044E35EE30E941F020E944900D4
:1016F0006B01D694C794D694C794EE24FF2400E2DD
:101700001EE495C08D81882309F04BC088816981D2
:1017100041E00E94F40888816A8140E00E94F40858
:1017200088816B8140E00E94F40888816C8140E0F0
:101730000E94F408C8010197F1F78881698140E0AF
:101740000E94F40888816A8141E00E94F40888813F
:101750006B8140E00E94F40888816C8140E00E9427
:10176000F408C8010197F1F788816A8140E00E947E
:10177000F40888816B8141E00E94F408C801019758
:10178000F1F788816B8140E00E94F40888816C81C8
:1017900041E00E94F408C8010197F1F788816C814B
:1017A00040C088816C8141E00E94F40888816B818F
:1017B00040E00E94F40888816A8140E00E94F408B9
:1017C0008881698140E00E94F408C8010197F1F71F
:1017D00088816C8140E00E94F40888816B8141E03F
:1017E0000E94F408C8010197F1F788816B8140E0FD
:1017F0000E94F40888816A8141E00E94F408C801CF
:101800000197F1F788816A8140E00E94F40888819D
:10181000698141E00E94F408C8010197F1F78881CD
:10182000698140E00E94F4080894E11CF11CEC146A
:10183000FD0408F467CFDF91CF911F910F91FF90C6
:10184000EF90DF90CF9008950F931F9380E060E0BA
:1018500041E00E94F40880E061E040E00E94F4086A
:1018600080E062E040E00E94F40880E063E040E055
:101870000E94F40800E21EE4C8010197F1F780E03D
:1018800060E040E00E94F40880E061E041E00E94F6
:10189000F40880E062E040E00E94F40880E063E049
:1018A00040E00E94F408C8010197F1F780E060E091
:1018B00040E00E94F40880E061E040E00E94F4080B
:1018C00080E062E041E00E94F40880E063E040E0F4
:1018D0000E94F408C8010197F1F780E060E040E061
:1018E0000E94F40880E061E040E00E94F40880E09B
:1018F00062E040E00E94F40880E063E041E00E9482
:10190000F408C8010197F1F71F910F9108950F9303
:101910001F938C01FC018081618141E00E9481085C
:10192000F8018081628141E00E948108F801808194
:10193000638141E00E948108F8018081648141E077
:101940000E9481081F910F9108951F93182F82E024
:101950006FEF0E94BC091A3040F4E12FF0E0EC5127
:10196000FE4F6081609582E002C082E069EF0E94D4
:10197000E1091F91089582E06FEF0E94E109089547
:101980000F931F9382E062E041E00E94F40800EDB3
:1019900017E0C8010197F1F782E062E040E00E94A1
:1019A000F408C8010197F1F71F910F9108951F9353
:1019B000182F482F417082E064E00E94F408412F04
:1019C0004695417082E065E00E94F40816951695F0
:1019D000412F417082E066E00E94F4081695117074
:1019E00082E067E0412F0E94F4081F9108951F9341
:1019F000182F82E060E041E00E94F40882E061E09C
:101A000040E00E94F408812F82958F700E94D70CCD
:101A10000E94C00C812F8F700E94D70C0E94C00CB6
:101A20001F910895FF920F931F93DF93CF9300D0E0
:101A300000D00F92CDB7DEB79C01009721F480E370
:101A40000E94F70C2AC0FE013196FF24C9016AE00A
:101A500070E00E94D00F805D8193F394C9016AE029
:101A600070E00E94D00F9B016115710579F7FA941F
:101A70008F2D992787FD9095F3948E010F5F1F4F4F
:101A8000080F191F06C0F80180810E94F70C015051
:101A90001040FA94FFEFFF16B1F70F900F900F90E0
:101AA0000F900F90CF91DF911F910F91FF900895AC
:101AB0001F93CF93DF93EC0110E003C00E94F70C5B
:101AC0001F5FFE01E10FF11D80818823B9F7DF91CF
:101AD000CF911F9108951F93182F82E060E040E09E
:101AE0000E94F40882E061E040E00E94F408812F47
:101AF00082958F700E94D70C0E94C00C812F8F702E
:101B00000E94D70C0E94C00C1F910895662329F0F3
:101B1000613011F080E001C0805C80580E946B0D44
:101B20000895DF92EF92FF920F931F93CF93DF936D
:101B3000F82E8B01E42ED22E880F880F880F805C40
:101B40000E946B0DC0E0D0E0F801EC0FFD1F80811A
:101B50000E94F70C2196C830D105B1F78E2D6D2D5E
:101B60000E94860D8F2D0E94F70CDF91CF911F915F
:101B70000F91FF90EF90DF90089582E060E041E0E8
:101B80000E94810882E061E041E00E94810882E0D9
:101B900062E041E00E94810882E064E041E00E944E
:101BA000810882E065E041E00E94810882E066E011
:101BB00041E00E94810882E067E041E00E948108E4
:101BC00084EF91E028EC30E0F9013197F1F70197CB
:101BD000D9F783E30E946B0D82E30E946B0D88E2CC
:101BE0000E946B0D8CE00E946B0D81E00E946B0DDA
:101BF00080EA9FE00197F1F786E00E946B0D08955F
:101C00008F929F92BF92CF92DF92EF92FF920F93AB
:101C10001F93CF93DF93BB24BA94EE24FF2488EC68
:101C2000882E912CF701EE5FFD4FC08081E06C2D76
:101C300040E00E94F408CEEFD1E0870102511E4F30
:101C4000D88081E06D2D0E9467098823A9F484EF74
:101C500091E0F4013197F1F70197D9F781E06D2D0B
:101C60000E946709882341F4F801B08081E06D2D5E
:101C70000E9467098823D1F321960C5F1F4FF2E081
:101C8000C230DF07E9F681E06C2D41E00E94F408E4
:101C90000894E11CF11C84E0E816F10409F0C2CFBD
:101CA0008B2DDF91CF911F910F91FF90EF90DF90DF
:101CB000CF90BF909F908F9008950E94000E8F3F0D
:101CC000E1F3089581E060E041E00E94810881E055
:101CD00061E041E00E94810881E062E041E00E9411
:101CE000810881E063E041E00E94810881E060E0DA
:101CF00041E00E94F40881E061E041E00E94F408C4
:101D000081E062E041E00E94F40881E063E041E0AC
:101D10000E94F40881E064E040E00E94810881E0D4
:101D200065E040E00E94810881E066E040E00E94BA
:101D3000810881E067E040E00E94810881E064E082
:101D400041E00E94F40881E065E041E00E94F4086F
:101D500081E066E041E00E94F40881E067E041E054
:101D60000E94F4080895853B08F08AE5682F70E02A
:101D700080E090E028EE33E040E050E00E94B10FB8
:101D800024EB30E040E050E00E94E40F28513C4F4B
:101D90003BBD2ABD08950F931F938C0181E00E94E3
:101DA0006B0D80EA9FE00197F1F7C8010E94580D82
:101DB0001F910F9108957F928F929F92AF92BF9241
:101DC000CF92DF92EF92FF920F931F93DF93CF9307
:101DD000CDB7DEB765970FB6F894DEBF0FBECDBFA7
:101DE00097E06E010894C11CD11CF601492F119295
:101DF0004A95E9F731E03B8322E02C8383E08D8331
:101E000048E0E42EF12CEC0EFD1EF701492F119253
:101E10004A95E9F788873A872B878C878E01015F7F
:101E20001F4FF801492F11924A95E9F784E0888BFA
:101E300085E0898B86E08A8B9B8B0E94620E0E94D4
:101E4000BD0DC6010E94870CC7010E94870CC80106
:101E50000E94870C0E9435060E94E90581E00E94DD
:101E60004B0783E065E041E00E9481088AE50E941B
:101E7000B30EBB24B394702E812E11E09E2CAF2C98
:101E80000C2DCD2C88ECE82EF12C0E945D0E8433B5
:101E900019F1853340F4823399F08333B8F48133F8
:101EA00009F041C007C08633E9F0863338F1873343
:101EB000D1F51EC080E690E00E94CB0E1E8238C095
:101EC0008DE690E00E94CB0E1E8332C08BE790E03F
:101ED0000E94CB0E1C8A40C088E890E00E94CB0E86
:101EE0001C8B3AC086E990E00E94CB0E1D8723C070
:101EF00085EA90E00E94CB0E1D861DC0BB2049F0F4
:101F000084EB0E94B30E82EB90E00E94CB0EBB24C8
:101F100018C080E00E94B30E81EC90E00E94CB0ECE
:101F2000BB24B3940EC08EEC90E00E94CB0E09C08F
:101F3000802F9C2D13C0892D9A2D63E270E00E94A2
:101F4000630B8AE50E94B30E88EE93E0F7013197A8
:101F5000F1F70197D9F799CF872D982D63E270E0BB
:101F6000EECF629FD001739FF001829FE00DF11DC3
:101F7000649FE00DF11D929FF00D839FF00D749F03
:101F8000F00D659FF00D9927729FB00DE11DF91FAF
:101F9000639FB00DE11DF91FBD01CF01112408950C
:101FA000AA1BBB1B51E107C0AA1FBB1FA617B7077F
:101FB00010F0A61BB70B881F991F5A95A9F780959B
:101FC0009095BC01CD010895A1E21A2EAA1BBB1B5E
:101FD000FD010DC0AA1FBB1FEE1FFF1FA217B307F5
:101FE000E407F50720F0A21BB30BE40BF50B661F0B
:101FF000771F881F991F1A9469F7609570958095CF
:1020000090959B01AC01BD01CF0108952F923F92A5
:102010004F925F926F927F928F929F92AF92BF92F8
:10202000CF92DF92EF92FF920F931F93CF93DF93A4
:10203000CDB7DEB7CA1BDB0B0FB6F894DEBF0FBE01
:10204000CDBF09942A88398848885F846E847D844E
:102050008C849B84AA84B984C884DF80EE80FD8050
:102060000C811B81AA81B981CE0FD11D0FB6F894C6
:0E207000DEBF0FBECDBFED010895F894FFCF87
:10207E0053746570706572313A204357005374651E
:10208E0070706572313A2043435700537465707017
:10209E006572333A2043570053746570706572331E
:1020AE003A204343570053746570706572323A207C
:1020BE00432043570053746570706572323A204363
:1020CE0057004772697070657220436C6F73656458
:1020DE000047726970706572204F70656E00496EB0
:1020EE0076616C6964204B65790000000000000089
:1020FE0000000001020203030303040404040404A9
:10210E000404050505050505050505050505050573
:10211E000505060606060606060606060606060653
:10212E000606060606060606060606060606060641
:10213E000606070707070707070707070707070723
:10214E000707070707070707070707070707070711
:10215E000707070707070707070707070707070701
:10216E0007070707070707070707070707070707F1
:10217E0007070808080808080808080808080808D3
:10218E0008080808080808080808080808080808C1
:10219E0008080808080808080808080808080808B1
:1021AE0008080808080808080808080808080808A1
:1021BE000808080808080808080808080808080891
:1021CE000808080808080808080808080808080881
:1021DE000808080808080808080808080808080871
:1021EE000808080808080808080808080808080861
:1021FE000808DC05C0F9A4B0999282F880903132BB
:10220E0033343536373839302A3D4142434404059C
:06221E00060700010203A7
:00000001FF
